:020000040002F8
:1060000050540020C1630200C9630200CB63020048
:10601000CD630200CF630200D163020000000000E4
:10602000000000000000000000000000D363020038
:10603000D563020000000000D7630200D9630200AC
:1060400041670200DB630200E16A0200DB630200D9
:10605000DB630200DB63020079650200DB630200A0
:10606000DB630200DB630200DB630200DB63020030
:10607000DB630200DB630200DB630200DB63020020
:10608000DB63020099670200DB630200DB6302004E
:10609000BD670200DB630200C1670200DB63020030
:1060A000DB630200DB630200DB630200DB630200F0
:1060B000DB630200DB630200000000000000000060
:1060C000DB630200DB630200DB630200DB630200D0
:1060D000DB630200DB630200DB6302000000000000
:1060E00000000000000000000000000000000000B0
:1060F00000000000000000000000000000000000A0
:10610000000000000000000000000000000000008F
:10611000000000000000000000000000000000007F
:10612000000000000000000000000000000000006F
:10613000000000000000000000000000000000005F
:10614000000000000000000000000000000000004F
:10615000000000000000000000000000000000003F
:10616000000000000000000000000000000000002F
:10617000000000000000000000000000000000001F
:10618000000000000000000000000000000000000F
:1061900000000000000000000000000000000000FF
:1061A00000000000000000000000000000000000EF
:1061B00000000000000000000000000000000000DF
:1061C00000000000000000000000000000000000CF
:1061D00000000000000000000000000000000000BF
:1061E00000000000000000000000000000000000AF
:1061F000000000000000000000000000000000009F
:10620000DFF80CD000F07AF9004800473DA5020005
:106210005054002030B450E8012F93B2C489234475
:106220008489A34228BF1B1B0489A34202BFBFF37A
:106230002F8F002007E0C3EA020340E80134002C5E
:10624000E9D14FF001000A6030BC704750E8012FDF
:10625000C2EA024240E801210029F7D1704730B478
:1062600050E8022F1FFAA2F3C488A34202BFBFF373
:106270002F8F00200DE0C48923448489A34228BFC6
:106280001B1BC2EA034340E80234002CE8D14FF064
:1062900001000A6030BC704750E8022FC2EA224277
:1062A00040E802210029F7D17047034653E8022F46
:1062B000D988B2EB324F4FF0000017BF92B241EADB
:1062C000014142EA014104E05A68B2EB324F08BF93
:1062D000012043E80212002AE8D1704730B4044696
:1062E00054E8000F0D4644E80053002BF8D1156028
:1062F00030BC704730B4044654E8000F40EA010552
:1063000044E80053002BF7D1156030BC704730B41F
:10631000044654E8000F00EA010544E80053002B4E
:10632000F7D1156030BC704730B4044654E8000F14
:1063300080EA010544E80053002BF7D1156030BC1A
:10634000704730B4044654E8000F00EB010544E800
:106350000053002BF7D1156030BC704730B40446B1
:1063600054E8000FA0EB010544E80053002BF7D1DF
:10637000156030BC704770B404464FF0000054E81C
:10638000006F0D68AE4207BF44E80023012044E8D7
:1063900000630E60002B1CBF0020F0E770BC70474C
:1063A00030B4044654E8000F88422CBF451A054615
:1063B00044E80053002BF5D1156030BC7047000055
:1063C0000648804706480047FEE7FEE7FEE7FEE78F
:1063D000FEE7FEE7FEE7FEE7FEE7FEE7C567020031
:1063E000016202002DE9F05F0546002092469B46BF
:1063F00088460646814640241BE0284641464746DB
:10640000224600F06BF853465A46C01A914110D309
:1064100011461846224600F016F82D1A67EB0108BF
:106420004F4622460120002100F00DF817EB00092D
:106430004E41201EA4F10104DFDC484631462A46C5
:106440004346BDE8F09F202A04DB203A00FA02F11F
:10645000002070479140C2F1200320FA03F3194352
:106460009040704700487047F008030040EA01037D
:106470009B0703D009E008C9121F08C0042AFAD2FA
:1064800003E011F8013B00F8013B521EF9D27047BE
:10649000D2B201E000F8012B491EFBD27047002266
:1064A000F6E710B513460A4604461946FFF7F0FF13
:1064B000204610BD421C10F8011B0029FBD1801A98
:1064C000704730B504460020034600E05B1C934251
:1064D00003D2E05CCD5C401BF8D030BD202A04DB49
:1064E000203A21FA02F00021704721FA02F3D0404D
:1064F000C2F120029140084319467047064C074DEF
:1065000006E0E06840F0010394E807009847103483
:10651000AC42F6D3FFF778FE6C1D03008C1D030020
:1065200070B58C1810F8015B15F0070301D110F855
:10653000013B2A1106D110F8012B03E010F8016B82
:1065400001F8016B5B1EF9D12B0705D40023521E05
:106550000DD401F8013BFAE710F8013BCB1A921C6D
:1065600003E013F8015B01F8015B521EF9D5A1426B
:10657000D8D3002070BD00002DE9F04700268AB076
:10658000DFF85091B0464FF48075012437460696E7
:10659000284605F0C7F838B1D9F80403204203D0E3
:1065A000284605F0B5F826432D1D64007F1CADB2CA
:1065B000082FEDD34FF4BE74204605F0B3F848B170
:1065C000204605F0A5F846F0004606AA0121002065
:1065D00005F08AF8404D16F0FF0F15D00127002472
:1065E00037420DD009EB8401D1F81005D1F8101510
:1065F000C0F3042055F82420C1F3014102B19047B3
:106600007F00641C082CEBD3002E5FDA4FF0FF30C4
:10661000CDF8108054E0281910F8507F90F9000050
:1066200027F0C008401C3BD007A9404604F0BDFA43
:1066300010B34FEA9719404601F0E0FF55F820707B
:106640001FB1B9F1030F03D006E0B9F1030F27D151
:1066500004A9404604F0B1FA4FF0A04101EB8800D4
:10666000D0F8000706A9C0F3014A404604F09DFA9D
:1066700018B1BAF1020F03D012E0BAF1030F0FD133
:10668000B9F1030F08D1BAF1020F1DD00221404623
:1066900005F00EF8761CF6B217B149464046B847E9
:1066A000641C042CB7D3002E10D06A4601210020B0
:1066B00005F01AF806990098884207D006900498C9
:1066C000002634460790A6E70321E0E70AB0BDE8BC
:1066D000F087000000600040002B002000F01F0247
:1066E000012191404009800000F1E020C0F88012B3
:1066F000704700F01F02012191404009800000F125
:10670000E020C0F80011704700F01F020121914005
:106710004009800000F1E020C0F8001270474907EE
:10672000090E002806DA00F00F0000F1E02080F8E2
:10673000141D704700F1E02080F80014704700003D
:1067400070B54FF48076304604F072FB114CB505FD
:1067500060B1304604F073FB0120C5F8080360798E
:1067600020B9012060712168002088474FF48276AB
:10677000304604F05DFB00280AD0304604F05FFB91
:106780000220C5F808032168BDE8704001200847D1
:1067900070BD00001023002007480021C0F8401100
:1067A000C0F84411C0F84811C0F84C11C0F80011ED
:1067B000C0F8041109F046B80010014008F090BF7D
:1067C00005F03CBDF0B5B5480023021D0178101D51
:1067D00001254FF0805406290BD11678360708D1D1
:1067E0000678C6F30316032E06D0042E04D0052E19
:1067F00002D0062907D00EE0B4F82463A84FC6F3F0
:1068000004263E6002E01678360704D10678C6F307
:106810000316032E02D0062904D00FE0A24FA14E8A
:106820007E670EE01678360708D10678C6F30316A1
:10683000032E06D0042E04D0052E02D0062907D040
:106840000EE0D4F84462994FC6F342363E6002E04F
:106850001678360704D10678C6F30316032E02D045
:10686000062906D011E0924E376827F0807737600E
:106870000EE01678360708D10678C6F30316032E05
:1068800006D0042E04D0052E02D006290AD011E02D
:106890004FF08046C6F80C31C6F81031834E361FD3
:1068A000336002E01678360704D10678C6F3031683
:1068B000032E02D0062905D00CE07C4F0326643756
:1068C0003E600AE01678360704D10678C6F3031650
:1068D000032E02D006290DD014E0764F05263E6027
:1068E000744E78363560734E083633603F263F1D50
:1068F0003E6002E01678360704D10678C6F3031628
:10690000052E02D0062957D062E06B4E36686B4FD9
:106910003E60694E361D36683F1D3E60664E083645
:1069200036683F1D3E60644E0C3636683F1D3E6043
:10693000614E103636683F1D3E605F4E1436366835
:106940003F1D3E605C4E183636685C4F20373E6017
:10695000594E1C3636683F1D3E60574E203636680D
:106960003F1D3E60544E243636683F1D3E60524EF9
:10697000283636683F1D3E604F4E2C3636683F1D28
:106980003E604D4E303636684C4F40373E604A4E82
:10699000343636683F1D3E60474E383636683F1DF8
:1069A0003E60454E3C3636683F1D3E60424E4036A6
:1069B00036683F1D3E6002E01678360708D106783B
:1069C000C6F30316032E06D0042E04D0052E02D0E3
:1069D000062907D019E0D4F85812394A01F04F01BE
:1069E000116002E0117809070FD10078C0F303109D
:1069F000032803D0042801D0052806D131480168B6
:106A0000C90702D06FF001010160D4F830010628F7
:106A100008D1D4F83401062804D12B48016841F488
:106A20008061016022487438016841F4700101609E
:106A3000BFF34F8FBFF36F8F4FF01021D1F80002DB
:106A4000002803DBD1F80402002822DA1F4A15606F
:106A50001F480468002CFCD01524C1F800420568CA
:106A6000002DFCD0C1F8044201680029FCD013605D
:106A700001680029FCD0BFF34F8F0D48F038016842
:106A8000144A01F4E06111430160BFF34F8F00BF6E
:106A9000FDE7124910480860F0BD0000E00F00F06B
:106AA000403501400DF0ADBA00C007403C05004044
:106AB000FCED00E0105600400404001020C500402A
:106AC000E40E0040000400403C17004004E5014093
:106AD00000E401400400FA050090D00308240020DF
:106AE00001480068004700001823002002E008C8A1
:106AF000121F08C1002AFAD170477047002001E038
:106B000001C1121F002AFBD170470000012120287B
:106B100003DA81400548014003E0402802DA2038CA
:106B2000814009B10120704700207047FC06FFBD7D
:106B30002DE9F843804643F2020659B9694606F04A
:106B4000DBFEB04202D008B100F0BAF99DF80000B7
:106B5000800744D40021404606F00AFF05003ED0DD
:106B6000112D3CD01F482049401AC708022000EBD5
:106B700007440D2D0AD00B2D1DD0B5421FD11B4946
:106B800020464246BDE8F84304F0D0BF20464246C6
:106B9000174904F0CBFF1321404676DF00281ED0B2
:106BA00005F0D4FB024601B020464346BDE8F04361
:106BB00010A104F0C2BF204642461C49E2E7284625
:106BC00005F0C4FB0246012000EB0740434618A134
:106BD00004F0B3FF2846BDE8F84300F071B9BDE802
:106BE000F8830000D41D03009C1D03001C1003004B
:106BF000A80F030073645F626C655F6761705F6418
:106C00006973636F6E6E656374282920726574758D
:106C1000726E6564202573206F6E20636F6E6E5FE9
:106C200068616E646C652025642E000068100300A6
:106C3000417373657274696E672E20706D5F636F48
:106C40006E6E5F7365637572652829207265747551
:106C5000726E6564202573206F6E20636F6E6E5FA9
:106C600068616E646C652025642E000010B560B10B
:106C700059B102780B785208B2EB530F05D10622B6
:106C8000401C491CFFF71DFC08B1002010BD01206D
:106C900010BD800701D00020704701207047C368F5
:106CA0008B4206D811440069491E814201D8012057
:106CB00070470020704710B501220221002001F02A
:106CC0007DFA08B1072810D107220221012001F026
:106CD00075FA08B1072808D100210A22084601F0F8
:106CE0006DFA08B1072800D1002010BD10B560B1C1
:106CF0000B480C49401AC008032101EB00400AA1CF
:106D000004F010FF07F080FB03E003210A4800F0C5
:106D1000CEFC002803D0BDE8104000F0D1B810BD73
:106D20002C1E03009C1D0300457261736520626F79
:106D30006E647321000000007C24002070B58CB0CC
:106D400015460E4600236C46C3F10F01415CE15429
:106D50005B1C102BF8D30D2104F11000FFF79FFBF3
:106D60000020C0F10F02315C2244401C1174032842
:106D7000F7D3684646DF0020C0F10F01214491F8A7
:106D800020102954401C0328F6D30CB070BD0220FB
:106D900001F01EB90149C97800F0B6BEE422002016
:106DA00070B50024064D06E06868012110F8340033
:106DB00005F030FB641C28788442F5D3002070BDB8
:106DC00020230020F8B515460C460646052A01D2B8
:106DD0000720F8BD05F01AFC18B905F0DFFB002804
:106DE000F7D1124900224E600C708D60C1E9042277
:106DF000C1E906220E4D0DE006EBC40029680091A2
:106E000081788DF8011000780A4A694605F054FB34
:106E10000028DED1641EE4B2EED2BDE8F84004489A
:106E20000021054A001D00F057B800002023002073
:106E30006005030091970200598B020072B604F0BE
:106E400023FF00BF04F054FD0028FBD11148124974
:106E5000401AC408012000EB044010A104F062FEB7
:106E600011480068C00700D000BE022000EB0440BB
:106E70000EA104F057FEBFF34F8F0B48E4380168B2
:106E80000E4A01F4E06111430160BFF34F8F00BF70
:106E9000FDE700002C1E03009C1D03004661746189
:106EA0006C206572726F7200F0ED00E053797374BC
:106EB000656D207265736574000000000400FA05BA
:106EC0000EB500210091CDE901106A4644F201009F
:106ED000FFF7B4FF0EBD0000084B9B7823B12AB129
:106EE00020B10068037C1BB1082070470720704761
:106EF000002303744174426118467047CC2B002074
:106F000070B507F0B1FD104800240B2104704470E7
:106F10000E4D817014206C602C706C70FFF7DEFBDE
:106F200006211420FFF7FBFB1420FFF7E2FB0848C3
:106F3000046006211120FFF7F2FB0548001F0068DE
:106F4000A860002070BD0000CC2B00204023002052
:106F5000081501402DE9FC47DFF8789099F80230D8
:106F600073B368B3052902D20720BDE8FC874369E3
:106F700033B3437C012B25D00027044600258846E7
:106F800016468DF80050684600F038F801A808F061
:106F9000FDFEC8B1012101700F4944600968C0E9D4
:106FA0000218C0E904769DF8040089F801009DF8F4
:106FB000000000F047F81420FFF7A6FB2846D4E7AE
:106FC0000820D2E70F46D8E704259DF8000000F01E
:106FD00039F8F3E7CC2B00200415014006498978E5
:106FE00039B130B1416921B100210174022108F0A9
:106FF00005BC082070470000CC2B002030B5EFF313
:10700000108172B60D4A9468012324B103700029DF
:1070100000D162B630BD93604FF0E023D3F88051C9
:10702000074C25401560C3F88041D3F88441546073
:107030005A17C3F8842100220270E8E7D82C0020F8
:10704000FC06FFBD0B498A68002A11D000280FD129
:10705000EFF3108072B60B684FF0E022C2F80031F7
:107060004B68C2F8043100228A60002800D162B661
:1070700070470000D82C00202DE9F0410646086832
:107080000C46411C4FF0A0474FF0010506D005FA11
:1070900000F1C7F80815206804F0F6FA6068411C92
:1070A00002D0002104F0DEFA3168A069C1F824059D
:1070B000607D227D31681043C1F86C05D4E900126F
:1070C0003068C0F81425C0F80C15207D012815D1B2
:1070D000A068411C02D0002104F0C4FAE068411C01
:1070E00005D08540C7F80855E06804F0CDFAD4E92A
:1070F00002123068C0F80825C0F81015BDE8F0810C
:107100002DE9F041064608680C46411C4FF0A047A7
:107110004FF0010506D005FA00F1C7F80815206800
:1071200004F0BCFA6068411C02D0002104F0A3FA0C
:107130003168A069C1F82405607D217D326808436B
:10714000C2F86C05D4E900123068C0F80C15C0F81C
:107150001425207D012815D1A068411C02D00021F2
:1071600004F089FAE068411C05D08540C7F808554D
:10717000E06804F093FAD4E902123068C0F80825F8
:10718000C0F81015BDE8F08103F0A8B82DE9F0476C
:10719000814605884A484FF000088AB00178424687
:1071A000284600F0C9FC99F80500400701D40021E9
:1071B00076E005F58077B8B201AB0122072106F031
:1071C0000FF804003F48404A4FF00101A0EB0200D5
:1071D0004FEAD00001EB00460AD0204605F0B6F891
:1071E000024630462B46394904F0A7FC214629E0E7
:1071F000284602F08FFD4FF6FF71044688422BD1DE
:107200008A46029802F0F0FC0446504510D0014630
:10721000284602F05FFD2846FFF7BCFDE0B928468E
:1072200007F018FE2846FFF7B5FD0028BFD013E091
:1072300006F0A2F90446504508D1304624A104F0D6
:1072400071FC0421284607F033FEB0E701462846CA
:1072500002F040FD4FF00108B8B22246072106F0C7
:1072600037F807001BD0862F1ED005F06FF80246B6
:1072700030462B462349009404F067FC39462846E3
:1072800007F016FE0021484605F09EFEB8F1000FFB
:1072900002D0204602F028FD0AB0BDE8F0870121A7
:1072A000484605F091FEF7E71822174903A8FFF7B3
:1072B000DDF8ADF80E5003A801F0DEFDEFE70000A9
:1072C000E4220020DC1D03009C1D030020130300AA
:1072D000436F756C64206E6F7420616C6C6F6361BA
:1072E0007465206E657720706565725F69642066DD
:1072F0006F7220696E636F6D696E6720626F6E6476
:107300002E000000CC130300F80403002DE9FC4715
:10731000002517880646158090F82D0014468946EA
:1073200030B13A462146484600F030FC051E09D1EE
:10733000B0784FF00C0A18B32088C846001DB84238
:1073400002D95046BDE8FC87684679DF0028F9D1AC
:107350002088032108F8001020881921401C80B2E1
:10736000208008F800102088401C80B2208000EBAC
:107370000801BDF8000008F029FC2188084420809D
:10738000F0780222C8B1218896F9033001F1030C8C
:107390004846BC45D5D8425421884FF0010C491CC1
:1073A00089B2218000F801C02188491C89B221805E
:1073B00009F801302088401C20807068B8B121880D
:1073C00090F9003001F1030C4846BC45B9D842544D
:1073D00021880A22491C89B2218042542188491CF3
:1073E00089B2218009F801302088401C2080308932
:1073F00050B1CDE900474B460622022106F10800B4
:1074000008F0DCFC051E9DD1308A50B1CDE9004763
:107410004B460722032106F1100008F0CFFC051EA1
:1074200090D1308B50B1CDE900474B461522142145
:1074300006F1180008F0C2FC051E83D1306A30B195
:107440003B462246494601F098F9051EDBD1706A99
:1074500030B13B462246494603F066F9051ED2D1BB
:1074600096F82C0038B13B4622464946304607F094
:10747000F9FD051EC7D1307838B13B462246494652
:10748000304603F0DFF9051EBDD128465AE718B58E
:1074900004460020ADF8000013466A46204600F07E
:1074A00006F8002802D0BDF80000204418BD70B5D1
:1074B00088B182B10024158803E0065D641C344461
:1074C000A4B2A54203D8061976789E4201D08C4218
:1074D000F3D38C4201D3002070BDA11C1180005D4C
:1074E000401E80B270BD80F8301070472DE9F04723
:1074F0000D00044606D02CB195F87A00002601282C
:1075000003D006E00E20BDE8F08795F8980001282A
:1075100029D0D5F8A000042825D0D5F89C0004284F
:1075200021D04FF00109A6702C2205F17801201D11
:10753000FEF79CFF84F83060D5F8A4006063D5F8AE
:10754000A800A0634FF6FF70A4F8480204F50D7080
:10755000C4F84402C4F84A62A4F84E6284F8506247
:10756000207810B104E00720CDE7FF2084F8540014
:1075700004F15501C4F8341294F82400EE274FF0BA
:107580001F0801281FD0A4F8388200BF04F50E722E
:107590002846FFF7BBFE0028B5D115F13C0F18D0E7
:1075A00004F24311C4F83C1294F8240001280DD0D1
:1075B000A4F8408204F5107205F13C00FFF7A6FE26
:1075C0000028A0D109E0A4F83872DFE7A4F84072DF
:1075D000F0E7C4F83C62A4F8406284F85190208B34
:1075E000A4F8480084F83C90266484F850606069F0
:1075F00060644D4604F13C02002104F1540072DF46
:10760000002880D125707EE710B50288102A1BD093
:10761000112A20D0262A1DD1007A0C46012801D03B
:10762000022817D1A0780521401CB0FBF1F201FB24
:107630001201204600F03BF800280BD0A16B002976
:1076400008D0BDE810400847C27B012A02D18088DB
:10765000A1F8480210BD0C46002184F8521280881F
:10766000B4F848128842F5D120790028F2D10121DE
:10767000DFE7704710B5044690F8540074DF01202E
:1076800084F85202002084F8540284F85000062145
:10769000204601F0C5FD002808D1A178204600F061
:1076A00006F810B1A16B01B18847002010BD2DE98B
:1076B000F05F044600780F4698B1A7700025C4F823
:1076C0004A52A4F84E5284F85052A079012608B1CB
:1076D000012F09D0E07980B1012F05D0022F03D00E
:1076E0000BE00820BDE8F09F616B21B184F8516286
:1076F0000820884701E084F8515204F24B21002011
:107700000A5C0AB1304603E0401C0628F8D300208A
:107710004FF002084FF0030B012F06D0022F0CD0C0
:10772000032F0FD0042F15D110E0A17929B194F8BF
:10773000241011B908B130460DE0E17911B108B15A
:10774000404608E0207A08B1584604E0607A08B163
:10775000042000E02846A070616B41B1032801D0ED
:10776000042804D1607910B194F85202A0B184F8D1
:10777000535204F13C0018210746FEF790FE04F135
:107780002C0084F83C60814606F022F858B194F849
:107790002C0084F8510008E084F8545284F85362B5
:1077A00007208847E5E784F8516094F8240050B139
:1077B000484606F00DF820B194F8280084F85200ED
:1077C00001E084F8526084F85050A27804F24A2113
:1077D00004F50D794FF0060A052A62D2DFE802F0BF
:1077E0007A030F22410084F83160C4F84452C4E99E
:1077F000101584F83C808020A4F8480053E084F8F9
:10780000318094F82420384612B10722027001E03A
:1078100080F800B0228A8281C4F844524160E16855
:10782000B96040E06069B860208BB88194F82400AA
:107830003D4610B184F83CA001E084F83C6020464D
:1078400008F080FA50B185F814800421204601F038
:10785000E7FC30BB052184F8311020E084F831B01A
:107860001DE0E069B860208CB88194F824003D46A2
:1078700010B184F83CA001E084F83C60204608F098
:1078800061FA48B185F814800421204601F0C8FC53
:1078900038B984F831A002E0042084F83100C4F83B
:1078A0004492A07878B13A4604F15400D4F84412D6
:1078B00072DF00287FF416AF94F8301094F854006B
:1078C00073DF0028F6D1616B11B194F8310088475D
:1078D000002007E784F83150F5E773B586B000253E
:1078E000044601260095ADF8006007A8ADF80250E7
:1078F0000190E188E08A6A46ACDFD4B1E08AA0F565
:107900007F41FF3917D00295039504950595E088CE
:10791000ADF80800BDF80200ADF80C0001988DF834
:107920000A60CDF810D00590E08A02A9AEDF08B059
:1079300070BD0E20FBE70820F9E7000030B585B0E8
:107940000D46040022D00DB34FF6FF70E082104BBD
:10795000286820600FCB8DE80F0004F118016846FD
:1079600062DF002810D1207E8DF812004FF4A8505D
:10797000ADF81000221D04A90120A8DF002803D1C2
:107980002946204600F088FF05B030BD0E20FBE7F9
:10799000640303000A4608B50146100014D000290C
:1079A00012D00A88102A07D0112A0ED0502A0BD1E3
:1079B000BDE8084005F078B98988C18203218DF8B7
:1079C000001002686946904708BD4FF6FF71C182FA
:1079D00008BD000070B5040012D001461C221448F6
:1079E000FEF744FD1248134D0560206850B17ADF60
:1079F000002806D12068016829604068686005E0B9
:107A00000E2070BD0B487BDF0028FAD108484FF6E6
:107A1000FF711438084A20F8041B05493439016005
:107A20000021FFF759FA0028EBD0032070BD0000B9
:107A30007427002040220020DDFC020010B504461F
:107A400000F09AF8002805D02146BDE81040024811
:107A500003F00FB810BD0000A027002070B5154638
:107A60000E46044608F07AF9002809D0054800EBD4
:107A7000840080692A463146BDE8704001F0FCBBB5
:107A800070BD00009027002010B5044600F074F887
:107A9000002805D02146BDE81040024802F0E9BFA9
:107AA00010BD0000A427002070B50546002400F09A
:107AB00063F838B12946044802F0DBFF08B102241C
:107AC00000E00124204670BD9C27002070B50546CB
:107AD000002400F051F838B12946044802F0C9FFEB
:107AE00008B1022400E00124204670BD9827002040
:107AF00010B51821034802F097FF182800D0C0B233
:107B000010BD00009027002070B505460C460846C1
:107B100008F024F960B1284600F02EF840B105487D
:107B2000294600EB8400BDE87040183002F0A1BF88
:107B3000002070BD9027002070B5054614460E4603
:107B4000084608F00BF9002812D0284600F014F877
:107B500000280DD00748294600EB860018301CB1DC
:107B6000BDE8704002F090BFBDE8704002F041BF38
:107B700070BD000090270020142801D3002070471A
:107B80000146014802F075BF942700207CB50546E8
:107B900008880C460930904201D90C207CBD68460B
:107BA0006DDF0028FAD121880820685420881B2125
:107BB000401C80B2208029542088401C80B2208044
:107BC0002844DDF801100160BDF80510818020888F
:107BD000801D80B220809DF80010490800D001214E
:107BE00029542088401C208000207CBDF8B50188E5
:107BF0000446212937D017DC2248234A4FF0A045FC
:107C0000A0EB02004FEAD0004FF0030202EB00406D
:107C10004FF4002610290FD0112904D11BA103F025
:107C200081FFC5F80C65F8BD3B2926D05629FAD14D
:107C30008088132176DF10E018A103F073FFC5F8E8
:107C40000865072000F0DCFA08B1FFF739F916489B
:107C5000A1884180154803F073F80028E3D0BDE8FF
:107C6000F840FFF72DB900200090A08869468FDF0B
:107C70000028D8D0FFF724F9F8BD8088132176DFDB
:107C8000EBE700002C1E03009C1D03004469736396
:107C90006F6E6E65637465642E000000436F6E6ED8
:107CA00065637465642E000020220020702400208B
:107CB00010B51A4C0188606810290ED011292BD1FB
:107CC000401E606028D1FEF7F6FF002824D021680E
:107CD000002921D0BDE810400847D0B90021012279
:107CE000084600F06BFA08B107280FD107220221DD
:107CF000012000F063FA08B1072807D1042202210D
:107D0000002000F05BFA20B1072802D0216801B101
:107D100088476068401C606010BD00003822002069
:107D20002DE9F04701883B4E40F2F3194FF6FF75FD
:107D300010291BD011293ED0122954D0502946D1E8
:107D4000C188F289841D914241D1618902293ED1C5
:107D50008688304602F08CF8050038D004F10C001B
:107D600000F0F2F8A8B3294630464EE0C17B878880
:107D7000044601292BD1A846284602F079F80500CF
:107D800017D02F8000202872234843464A460168B6
:107D9000C5F80A104068C5F80E0004F1100105F19D
:107DA0000A0002F025F96872F08900280FD12946EF
:107DB0002AE0042013E0808802F05AF8040006D07C
:107DC0006068FFF70BF908B107F056F82580BDE8A9
:107DD000F087FFE76868FFF701F90028F7D0BDE8F2
:107DE000F04707F049B887880646384602F040F861
:107DF0000400ECD02B464A4606F1080104F10A00C3
:107E000002F0F6F8607221463846BDE8F04700F00F
:107E1000FBBC000074270020402200202DE9F04F19
:107E20000746858802883D48012197B08346102A7D
:107E300009D0112A49D01A2A6CD1387AB1EB101F17
:107E400045D2012244E0354C083CA068C0430B9069
:107E500061680BA802F031FE0B990CA800F06EFCD3
:107E60002C220CA96846FEF701FB0026E946A04635
:107E700010E000BF09EB46005FF00004B0F804A07A
:107E800008EB84005146001D02F0B3FD641C1D2C5C
:107E9000F6D3761C0098B042ECD8142D05D317B059
:107EA0000420BDE8F04FFFF70BB82946584602F012
:107EB000EBFD294608F1040002F0E6FDF87B0128FD
:107EC00028D016482946001D15E029461AE0002250
:107ED0000221B1EB101F01D2012600E000260F495C
:107EE000083901F11000041D294682B102F0CCFDD1
:107EF00036B12946204617B0BDE8F04F02F0C4BDA8
:107F00002946204617B0BDE8F04F02F072BD02F0DE
:107F100070FDF5E717B0BDE8F08F0000982700204E
:107F200010B504460748007800280AD0204601F022
:107F3000CDFD204607F020F92046BDE8104001F0B5
:107F4000ABBA10BD74220020007800F00100704729
:107F50000149085C70470000780303000649095C8A
:107F60004FF0A040D0F81005C84010F0010000D03C
:107F7000012080F001007047780303002DE9FC41E7
:107F80000646C0074FF000050ED0104F0024012216
:107F9000385D009500231146019503F009FB641C30
:107FA000042CF4D300F046F8B0070DD5074E00249A
:107FB000361D0022305D032300951146019503F024
:107FC000F7FA641C042CF4D3BDE8FC8174030300AD
:107FD00007490B5C4FF0A041D1F8042501209840DF
:107FE00020EA0203C1F808351040C1F80C057047BB
:107FF000740303000249085C012103F06ABB00001E
:10800000740303000249085C002103F062BB000016
:10801000740303000649095C4FF0A040D0F8040542
:10802000C84010F0010000D0012080F0010070472E
:108030007403030010B500242046FFF7DBFF641C27
:10804000042CF9D310BD10B500242046FFF7DAFF49
:10805000641C042CF9D310BD10B50246064B4FF03A
:10806000FF3000215C5C944201D1084610BD491CE0
:108070000429F7D310BD00007803030070B50C4E3F
:108080000C004FF0000530600BD0012000F06AF8C2
:1080900008B1022004E0002000F064F800B10B20D9
:1080A0002070706810B9FEF706FE0546284670BDC0
:1080B0003822002010B5002000F0DCF908B10628B5
:1080C00006D1012000F0D6F908B1062800D1002021
:1080D00010BD00002DE9F0470D468146FFF7BCFFBB
:1080E0000446042836D2DFF874801B481C4EA8F1E1
:1080F0000C0725B3012D0ED0022D2BD104EB44002B
:1081000030444578002D25D0B968002922D0284672
:10811000BDE8F047084704EB4401755C0E447178F4
:1081200049B10E4A4FF40041093A8068FEF712FF48
:1081300008B987F80390B17808F80410E2E780687E
:10814000FEF74CFF04EB4401314418F804008D782D
:10815000A842D7D0BDE8F0877C030300342200207A
:1081600014270020042801D2FFF7F8BE0020704732
:1081700010B5104A042807D007280FD00A2817D1B5
:10818000BDE8104006F0E4BF1321508876DF0DE013
:1081900000280DD0BDE81040FEF792BE5088A0F533
:1081A0007F41FF3904D10448FFF764FA0828EFD172
:1081B00010BD0000202200207C24002070B5002388
:1081C000042810D20D4D00EB4004012A02D10129F0
:1081D0000CD00022094E00EB4000304461B101296F
:1081E00006D0022906D00723184670BD0E30C2B251
:1081F0002A55F9E74270F7E78270F5E71427002067
:10820000044A014600201279D20702D0084600F045
:108210004DB870472822002070B506461E4800243D
:10822000C0E90161B00720D500250122114628468A
:10823000FFF7C4FF6D1C0446042D02D2002CF4D0BD
:1082400013E094B940F2666204211448FEF7BAFDC7
:1082500004000AD1FEF7A4FD040006D10F48104A1D
:108260000021001FFEF738FE0446F00712D001205F
:10827000FFF784FE74B909480A4A00210C38FEF75A
:108280002BFE040006D10548074A01210838FEF7F5
:1082900023FE0446204670BD2822002088030300E8
:1082A0004185020085A002008F6D02002DE9F05F7C
:1082B0006E4C054600266078B34618B184F801B0CC
:1082C00001F0C8FE6A4F4FF47A694FF4C87A4FF054
:1082D0000108182D69D2DFE805F00C131338475454
:1082E000696E727B727BC58484848484B3B6B9BCA6
:1082F000C5C501F0AFFE3868FEF770FE06465CE0CB
:108300000020FFF787FE00284FF0000008D0FFF79D
:1083100071FE022D02D14FF4E16008E0484606E00C
:10832000FFF770FE022D01D1C82000E05046410C3D
:10833000C0034FF4FA72801841F100012570520019
:108340000023FEF74FF801462AE00020FFF762FE07
:1083500000284FF0000004D0FFF74CFE4FF44870A7
:10836000E5E7FFF74FFEDFE70020FFF753FE0028A9
:108370004FF0000002D0FFF73DFECFE7FFF742FECF
:10838000D4E70020FFF746FE00284FF0000002D09F
:10839000FFF730FE01E0FFF735FE257041F69A1138
:1083A00000223868FEF7D6FD064646E00020FFF7BB
:1083B0000FFE257008E0002051E025703DE084F8B4
:1083C00001800120FFF704FE002240F6CD41E8E7DE
:1083D00084F801800120FFF7FBFD00224FF480416B
:1083E000DFE77868FEF7FAFD0646D5F1110000D008
:1083F0002EB10220FFF7FEFD84F802B01DE0012837
:1084000016D980B2C8214843C117C90341EA504177
:10841000C0034FF4FA72801841F1000152000023AA
:10842000FDF7E0FF014600227868FEF793FD06465F
:108430000220FFF7E7FD84F802803046BDE8F09F98
:1084400001F008FEB9E701F005FEB4E701F002FE15
:1084500004E001F0FFFD0020FFF7D4FD0120FFF74D
:10846000D1FDAAE7FFF7EFFDA7E7000028220020D3
:108470007C030300012107F008BD00002DE9F8434B
:108480000546861C00208DF8000090460F464FF0F0
:1084900001096846FEF7B2FD1B4C20683860D4E93C
:1084A0000001401AA16804F21C47081A0EE00121DD
:1084B000384602F0FCFA01F0F3FF0146384602F0BC
:1084C000F6FAD4E90001401AA168081A401C864255
:1084D000EDD8B8F1000F03D0052065F3891002E054
:1084E000062065F39F50A2682168114004EB8101CA
:1084F000C8602068304420609DF80000FEF7A2FDAF
:108500004846BDE8F88300002830002030B4826877
:108510000468531C8360A154D0E901128A4202D33B
:1085200030BC02F00ABD30BC70470000034803C8ED
:10853000814201D10120704700207047283000207F
:1085400000780221FFF7C6BD1CB5044601F0E2FB2E
:1085500000236A46092104F085FF052805D1034858
:10856000012241792046FFF7E7FA1CBD482200208E
:108570001CB50021009142F6A621ADF800100121A2
:108580008DF80210034901AA096801916946A0DF2C
:108590001CBD0000A803030005494FF0FF32082866
:1085A00041F8202002D3084480F84820704700009A
:1085B000002B0020F0B54FF0FF3512B10023082644
:1085C00001E008230C260C4C05E000BF54F8237092
:1085D0007F1C04D05B1CB342F8D32846F0BD26189C
:1085E0005DB286F8305044F82310002AF5D1E11826
:1085F00081F84800F1E70000002B00200249084400
:1086000090F9300070470000002B002070B5044640
:108610004FF6FF750A462846AC4209D14FF48074E4
:108620002146104602F000FA80B2A0420BD070BD85
:10863000FF2CFCD82146104602F0E6F990F0010F1D
:1086400001D0204670BD284670BD000070B5084CB2
:10865000050009D010342168002907D0086820607F
:10866000496828468847F6E70834F4E770BD0000FB
:10867000EC2A0020054A012120B1012805D1917082
:10868000FFF7E4BF51700020FAE77047EC2A0020A2
:108690002DE9F05F26484168F1B3DFF898B00E6825
:1086A0008146DBF8004087688078E11B21F07F4538
:1086B000ED1CB0B9DFF880804FF48030C8F8440377
:1086C000C8F804031120FEF709F81120FEF711F88D
:1086D0004FF0010AC8F800A02F2003F093FE89F89C
:1086E00002A0B54200D23546124BE8193C3320F0C7
:1086F0007F401860DBF800105A46091B21F07F41CB
:10870000001B20F07F40C91C81420FD910681860FF
:108710002F2003F077FE00E004E0BDE8F05F1120B9
:10872000FDF7F2BFBDE8F05F06F09EB9BDE8F09F2F
:1087300040230020041501400010014073B58CB0A7
:108740000646002000900D9880B100246D46214619
:108750000DA802F08EF930B1009805EB400084803E
:108760000098401C0090641C142CF0D32C22694605
:108770003046FDF77BFE0EB070BD2DE9F041178845
:108780000646B81D14460D46984202D90C20BDE895
:10879000F0813188072206290AD34FF4486C4FF63E
:1087A000FF73614501D9994202D17088062801D230
:1087B0001046ECE7604501D99842F9D1994203D0BF
:1087C000984201D08142F3D80520E8552088122133
:1087D000401C80B2208029542088401C80B2208018
:1087E0004119308807F0F2F92188084480B22080CE
:1087F0004119708807F0EAF9218808442080002098
:10880000C5E7FEF75DBB000038B54A7A0F4B62B191
:1088100000220A725969002906D001228DF8002031
:10882000ADF802006846884738BD0A7A62B19B6895
:108830004C68024619462046FEF78CFB0028F3D010
:10884000BDE8384006F018BB5B68F1E774270020EC
:10885000F0B587B016460F4604461D4618220B4950
:108860006846FDF703FE0A488DF80870ADF802402F
:10887000ADF80A608DF80C50017800222046FFF711
:108880005BF9684600F0F8FA07B0F0BD1005030088
:10889000E4220020FEF74CB92DE9F04790B00E46D7
:1088A00005461C2102A8FDF7FAFD00249DF80800EA
:1088B000039420F0180040F002078DF8087005942A
:1088C0000694079408940094B0798DF80000F0792C
:1088D0008DF801009DF80200142120F00600801C94
:1088E00020F019008DF80200287E8DF83E0041F23C
:1088F0000150ADF83C0009A8FDF7D1FD0DF13C0990
:10890000CDF824900E949DF838004FF0010820F027
:108910000F00401C20F0F00010308DF838009DF85A
:108920003900ADF8308020F00F00401C20F0F0003E
:1089300010308DF839009DF83A00ADF82C8020F009
:108940000600801C8DF83A0047F010008DF80800F2
:108950000EA8CDF828D0ADF82E400790EA46A8889A
:10896000AB1D09AA02A9AADF002839D11C2102A83F
:10897000FDF795FD9DF80800039420F0120040F0EB
:1089800008008DF808000594069407940894009454
:10899000B0798DF80000F0798DF801009DF80200A3
:1089A000142120F00600801C20F019008DF8020030
:1089B000287E8DF83E0041F20250ADF83C0009A837
:1089C000FDF76DFDCDE9099AADF82C80ADF82E408C
:1089D000ADF83080A88805F10E0309AA02A9AADF24
:1089E00010B0BDE8F087000070B588B006460020E2
:1089F00005900690ADF81410ADF816100190029095
:108A000001AA05A9304690DF050021D003F09EFCA5
:108A10000346114811493246401AC108012000EBB3
:108A2000014004460E4903F088F8BDF8042012B94D
:108A3000BDF8060028B1BDF80630204609A103F0B4
:108A40007CF8BDF808201AB12046164903F06EF8EC
:108A500008B0284670BD0000B41D03009C1D030033
:108A6000DC0B03005468652072657175657374656D
:108A7000642054582F5258207061636B6574206CC9
:108A8000656E67746820697320746F6F206C6F6EF9
:108A9000672062792025752F2575206F63746574B2
:108AA000732E0000280C030070B50446094801210C
:108AB00002F018F8BFF35F8F0025002808D1204688
:108AC00001F068FC002803D1BFF35F8F0148056007
:108AD00070BD0000542200207FB50C4610B101206B
:108AE00004B070BD2079002638B141F61D5501282B
:108AF0001BD0022826D00F20F2E702202071029618
:108B00000396E0680190694601A805F009FF50B19D
:108B100002988188E18000882081BDF800100298C9
:108B200005F07CFFDCE70A20DAE70A4B6A46002101
:108B3000A01D05F0B1FE38B1064918398E61CE612D
:108B40000A28CDD12846CBE702488188019805F054
:108B500065FFF5E76C2300202DE9F0470025DFF8DD
:108B60008C803CE06068002100EBC5060120327873
:108B70009146FDF768FCD4E9062300EA020701EA02
:108B8000030C57EA0C0728D082438B434846C4E9BC
:108B9000062303F0F9FC3278824691460120002139
:108BA000FDF751FCD4E9042300EA020401EA0307BB
:108BB0004A4650460021FDF746FC44404F403C43A6
:108BC0000BD17078012801D0012100E000217268EA
:108BD00081EA0A010AB1484690476D1CEDB298F847
:108BE000000044468542BDD3BDE8F0872023002025
:108BF00010B50021024801F075FF80F3100010BD90
:108C0000443400200E4910B50A784C780023A24263
:108C100012D0521CD2B20A70022A00D10B70084A3C
:108C20000B780C3252F8232002608868104420F040
:108C30007F408860012010BD0360002010BD00004F
:108C40004023002013460A460021FFF701BE000022
:108C50002DE9F843104D0F4680461E469146694661
:108C6000286801F09AFE040014D01C21FDF717FCBF
:108C700001202071C4F81490380BC4F80080C4E9B6
:108C800002606946286801F0A9FE05F071FD002028
:108C9000BDE8F8830420FBE70006030010B5037865
:108CA0000022072B06D2DFE803F005040610202976
:108CB00030000A7010BD01230B7003898B818388FB
:108CC000CB81C06888600A7410BD02220A700289D4
:108CD0008A818288CA81C2688A60807D062802D023
:108CE0000020087410BD0120FBE703220A70C2882F
:108CF0008A810289CA81C068886010BD04230B7014
:108D0000C0888881CA818A6010BD0520087010BDA6
:108D100070B5064D0646002455F8241009B13046BA
:108D20008847641C042CF7D370BD0000002D002080
:108D300030B50446006887B00D46806800281FD013
:108D400018216846FDF7ABFB0195A06805902079D6
:108D500010B1012810D107E001208DF80000206932
:108D60000290E068039005E002208DF80000E068C2
:108D70000003029060690490206881686846884713
:108D800007B030BD2DE9F04186B016460C00804694
:108D900029D0112C27D0082C25D018216846FDF7A2
:108DA0007EFBADF80280404600F0B4FFADF8040051
:108DB0001B481C490027401AC5080D2C16D0204618
:108DC00003F0C4FA0246012000EB05404346164971
:108DD00002F0B3FE07208DF8000002948DF80C70AD
:108DE000684600F057F806B0BDE8F081022000EBBD
:108DF000054042460D4902F099FE03208DF800001F
:108E000026B13078C00701D0012000E002208DF8A3
:108E1000080041F201108DF80C70ADF80A00DFE790
:108E2000E41D03009C1D0300981503008814030033
:108E300010B50446408800F06DFFA080024801682C
:108E40002046BDE810400847502200202DE9F0419F
:108E500007460024064E074D05E000BF56F82410D3
:108E600038468847641CE8788442F7DBBDE8F08127
:108E7000A02A00207422002010B50446408800F08B
:108E800049FFA080024801682046BDE8104008471D
:108E9000C4040300014909680847000050050300A5
:108EA00070B586B0044618216846FDF7F8FAA08927
:108EB0000125A0F54040ADF804002078324E062888
:108EC00035D2DFE800F0340303032E4EA08900F012
:108ED0008BF930B9E08943F6FE71A0F54040884235
:108EE00025D8A07B8DF808002078032811D0002019
:108EF0008DF80900A0680390606860B109208DF8C2
:108F00000000606804908DF81450684604F0FCF985
:108F10000DE00120ECE708208DF800008DF81050DE
:108F2000F3E7A08900F060F908B1E08930B170780A
:108F3000002801D004F032FB06B070BD606840B17B
:108F40000B208DF80000606802908DF80C50757051
:108F5000DBE70A208DF80000BDF8040004F0BCFB3C
:108F6000F5E7606858B114208DF800006068029041
:108F70008DF80C504FF6FF70ADF80400C5E71320D4
:108F80008DF80000F6E700006022002038B50446A6
:108F90000E480078A8B1A4F57F40FF380FD068468E
:108FA00005F018FB78B10521017001210171C48021
:108FB000684605F01DFB05F0CDFB002038BD042000
:108FC00038BD022038BD082038BD000074230020C1
:108FD0000C4808B5007888B1684605F0FBFA78B10E
:108FE00006210170684605F003FB0748017809B1C6
:108FF0000121017305F0AEFB002008BD022008BD71
:10900000082008BD74230020C42D0020F0B587B0CF
:1090100014216846FDF743FA2B4C207818B16846B6
:10902000FFF776FE4EE0201D01F03EFDB8BB4FF08D
:10903000102041690004026940694B1C01D100FB0A
:1090400002F1224800220161A1F54051C16020498E
:1090500002F008F9002820D11F481C238C221D494A
:10906000006801F087FC03F0E1FE051E14D0022821
:1090700012D000270126062D12D005A805F0AAFA65
:1090800088B106700C2D18D2DFE805F0170F170F06
:1090900017161716171113110B2007B0F0BD11E0AA
:1090A00026706760BBE70820F7E7077105E003213A
:1090B00000E00221017100E0067105A805F098FAB0
:1090C00005F048FB0020E8E7742300200C24002072
:1090D00010060300102D00207805030038B50400A9
:1090E00014D0694605F01CFCA0B1BDF8000000EBEF
:1090F0008001094800EB8100C16849B1A17A39B10A
:10910000C168491EC1600020A07238BD052038BD6D
:10911000062038BD0A2038BD9C2D00201FB501A9AE
:10912000684605F0B9FB04B010BD07B513460A4602
:109130006946002005F0B0FB0EBD07B513460A4690
:109140000021684605F0A8FB0EBD20B119B10068EA
:10915000086000207047052070470000F8B50D46F4
:10916000040018D0BDB1694605F0DAFBA8B1BDF81E
:1091700000000B4900EB800001EB800001210C3066
:10918000666801F094FC2E6060680C306860012015
:10919000A0720020F8BD0520F8BD0A20F8BD00002F
:1091A0009C2D002018B10323002206F0B1BF05203A
:1091B00070470223002206F0ABBF0000084910B53B
:1091C0000A69042A0AD0074A096942F821000448BA
:1091D0000121103001F06BFC002010BD0C2010BDEF
:1091E00054230020002D002043F6FE71A0F54040DE
:1091F000884201D8012070470020704710B504460E
:109200000078182802D1FEF773FC207010BD10B54D
:1092100004460078182802D1FEF76AFC207010BDC1
:1092200070B50D460446B0F83812D0F83402012269
:10923000FEF72DF900B1057004F13C0204F50D7143
:1092400004F1540072DF70BD70B51346002205466C
:10925000112900D10122074C33B12179FEF76CFCB2
:1092600000226178284600E06178BDE87040FEF792
:1092700063BC0000EC220020F7B517460E0011D0A9
:109280000098002560B100242146684601F0F1FBFA
:1092900018B1A0B23946B0476D1C641C142CF3D32E
:1092A0002846FEBD0020FEBD406805F0B3B90000B1
:1092B00070B508B1012070BD1B4C0025207B08B1A2
:1092C000257301E000F0A4F8207808282AD2DFE80E
:1092D00000F02904080C10291422BDE8704000F0A9
:1092E00025B8BDE8704000F081B8BDE8704000F0DE
:1092F00063B8BDE8704000F03FB806202070608879
:10930000094900EB8000283901EB80004068BDE886
:10931000704003F06BBD072020706560BDE87040B1
:1093200003F072BD0F2070BDC42D00201149F0B4B0
:109330008A1C00200346A1F128050C18A67A4EB11C
:10934000A37200EB800405EB8404E66816B9247C64
:10935000012C0AD0401C80B20228EED30B704B8047
:109360004B60F0BC41F61D5070471080F0BC00F01F
:109370003DB80000C42D00200C48418801EB81025B
:10938000A0F1280101EB8201CA6852B105210170E8
:10939000074802218180016800230122054801F06D
:1093A000C5BE042202704968F6E70000C42D002003
:1093B0007C2300200C24002038B50A4908480324E7
:1093C0000B684268898803EB810153880470DB1CB9
:1093D00000201B0400909B0B034801F0FBFF38BDED
:1093E000C42D00207C2300200C240020074910B548
:1093F0004888091D05F0E4FA18B1BDE81040FFF7F0
:10940000DBBFBDE81040FFF7B7BF0000C42D002050
:10941000F0B51F481F490125067802248B88A0F16A
:109420002802082E19D2DFE806F00418181B222F94
:109430002F170189491C01810021418080F80C10FF
:1094400001EB810312F8233043B100234418491C77
:1094500089B2A3720229F3D30570F0BD0123F5E7A9
:1094600042685288D21C1A448A800470F0BD468833
:109470000D6806EB860602EB860256680E605560A4
:1094800013818C80062100E007210170F0BD0000EF
:10949000C42D00207C2300202DE9F0410446808863
:1094A0002188394E86B00746352937D0502923D038
:1094B000522902D054295DD102E000F00FFF59E09B
:1094C000182232496846FCF7D1FFADF802703846E1
:1094D00000F020FCADF8040000F09CF90022317986
:1094E0003846FEF729FB0022F1783846FEF724FBC8
:1094F0006846FFF79DFC3DE0207B01283AD1A07A29
:10950000012837D12089A0F52451023932D1012117
:10951000384600F037FF06F0C9FB2BE04FF000089B
:1095200042467179FEF708FBE288B2F5857F1DD0CF
:1095300017481849401AC008022101EB004512B132
:10954000284615A10BE06289012A03D0284621A1F3
:1095500002F0ECFAA289012A04D028462CA102F0DC
:10956000E5FA03E0A07B00B1012080464146384681
:1095700006F08AF800223549B078FEF76FFA06B097
:10958000BDE8F04105F0C8BC4822002004040300F7
:109590009C1D03009C1D0300556E65787065637407
:1095A0006564204741545420737461747573207747
:1095B00068696C652067657474696E672043415201
:1095C00020636861722076616C75653A2030782579
:1095D000780000004D756C7469706C6520282564F6
:1095E0002920434152206368617261637465726926
:1095F000737469637320666F756E642C207573696C
:109600006E67207468652066697273742E000000AE
:10961000556E6578706563746564204341522063BC
:1096200068617261637465726973746963207661DD
:109630006C7565206C656E67746820282564292C1C
:109640002073746F726520302E0000008971020053
:1096500070B504460078002814D1608800F03EFE02
:109660006588284600F098F928B107480122C1789A
:109670002846FEF761FA6088FEF766FFBDE8704095
:1096800006F014BB70BD00004822002070B51A4CD3
:1096900000252570FEF72CFA6070FEF729FAA070FD
:1096A000FEF726FAE070FEF723FA2071FEF720FAA3
:1096B000607162780121182A12D0A278182A0FD07E
:1096C000E278182A0CD02279182A09D0182807D055
:1096D00004F10C000560BFF35F8F2170002070BDA6
:1096E0000648074A801AC00801EB0040054902F00D
:1096F00019FA032070BD0000482200209C1D0300C1
:109700009C1D0300F40803007CB50446007808287B
:1097100037D1607A58BB207A1C4E4FF6FF7501286E
:1097200011D0072802D008282BD121E0A08800F012
:109730003BFA0446A84224D0012100F023FE204633
:10974000FEF702FF1DE0A0886A46012103F0FEFC3F
:1097500068B90198007850B1A08800F025FAA842B5
:109760000FD00122F178FEF7E7F905F0D5FB08E00C
:10977000F068012805D1BFF35F8F044900200C3148
:109780000860BDE87C4006F091BA00004822002045
:109790002DE9F0418046024601200021FCF753FEEE
:1097A0001A4F05460E467868FDF718FC00280CD1C4
:1097B000174CD4E9062110462A4001EA06031A4351
:1097C00005D0A843B143C4E90601BDE8F081404695
:1097D00002F0DAFE30B1D4E9040128433143C4E990
:1097E000040105E0D4E90410A943B043C4E904101E
:1097F000D4E9060128433143C4E90601A168786829
:10980000BDE8F0410022FDF7A5BB000060050300A4
:10981000202300201CB5054AD2E90212CDE900122E
:109820000022694603F058FE1CBD0000200403001E
:1098300003484FF6FF7181800121017000207047BD
:10984000582200202DE9FC41804600F063FA0024F4
:1098500003250127A0F57F412646FF3908D06A4637
:10986000082103F073FC18B90198841D86880568E7
:1098700032462B4621464046B1DF042804D0082852
:1098800004D00B2808D002E0112000E00020002FB7
:1098900000D10B20BDE8FC810027A80701D50125D8
:1098A000E6E7344303D0002426460325E0E70648D4
:1098B00006494246401AC008012101EB0040044914
:1098C00002F034F9E5E70000A41D03009C1D03002D
:1098D000640B03002DE9FC41804600F01BFAA0F563
:1098E0007F410646FF390ED001252A466D1C002710
:1098F000ADB26B460821304603F072FC040006D07E
:10990000072C33D033E043F20200BDE8FC8101991B
:1099100003230A1D0B604046891DB2DF040004D0FA
:109920000C2C09D0052C09D009E03246082110463C
:1099300003F0CEFC04461AE0012700E000240821D1
:10994000304603F0BBFC70B102F000FD034609484D
:1099500009493246401AC008012101EB004007497D
:1099600002F0EBF80324002FBFD100E00C242046C6
:10997000CBE70000A41D03009C1D0300E40A0300C4
:1099800004488088A0F57F41FF3901D005F0CEBAA8
:1099900070470000582200200EB502A9019100F086
:1099A000B9F96A46012103F0D1FB08B100200EBDD0
:1099B000019800780EBD00002DE9F04107464FF6F2
:1099C000FF761048B3DF78B102F0C0FC02460E48C3
:1099D0000E49401AC008012101EB00400C4902F079
:1099E000A5F80320BDE8F081064C43F20305A41E50
:1099F000324661883846AFDFA842F3D16088401C08
:109A00006080F5E75A220020A41D03009C1D03007E
:109A1000980A0300428800EB82020C328A4201D984
:109A2000022070478188A1F57F42FF3A03D0008869
:109A300008B10020704701207047884204D20068B6
:109A4000401C01D001207047002070473EB50278CD
:109A500002230C46B3EB520F17D1B0F80110ADF84A
:109A60000010C1788DF802108188ADF8041080795B
:109A70008DF8060002AA01A92046FDF75FF903222E
:109A800002A96846FCF71DFD08B100203EBD01207B
:109A90003EBD000070B50D460446142810D2FEF7F6
:109AA0006BF868B1084904EB840001EB4000D0F882
:109AB00002102960C188A980007AA871002070BDB9
:109AC00043F2020070BD00000828002070B5018834
:109AD00092B0102961D1011D2C226846FCF7C6FC0A
:109AE0009DF804004FF6FF7603213446B1EB500F8A
:109AF0002BD003F0AFFC9DF804006D4640080ED05B
:109B000001280CD0022820D118E00D99281D113110
:109B1000FDF7ACF818B100BFBDF82C4015E00CAA59
:109B20000BA9072003F06AFC0028EED10DE00D9987
:109B3000281D491CFFF78AFF0028EDD10CAA0BA9AC
:109B4000072003F05BFC0028F1D1BDF80000B4420F
:109B500000EB8001124820F8114000EB4100019910
:109B6000C0F80210BDF80810C1809DF80A100172FB
:109B700013D0BDF80000ADF82E000020ADF8304045
:109B8000084E8DF82C000BAD044600BF56F824108B
:109B900028468847641C022CF8D312B070BD000020
:109BA00008280020340403002DE9F0414FF6FF7629
:109BB0000546B04213D00B4F002400BF04EB8400D5
:109BC00037F81000A84206D12046FDF7D5FF10B1A6
:109BD0002046BDE8F081641CA4B2142CEED33046BC
:109BE000F7E70000082800203EB50C46054603F0C4
:109BF00031FC0BE0BDF80000A04207D028460299D6
:109C000000F00EF810B1BDF800003EBD01AA694693
:109C1000072003F0F3FB0028ECD14FF6FF703EBDA8
:109C20002DE9F0410C46054600F1110701F111063E
:109C30001022491C401CFCF744FC48B9681C00F089
:109C4000F9F928B1601C00F0F5F908B1012400E031
:109C5000002431463846FDF709F83B780222B2EB82
:109C6000530F0CD00321B1EB530F08D03378B2EB74
:109C7000530F04D0B1EB530F01D0012100E00021BC
:109C8000084201D18C4302D00120BDE8F0810020C0
:109C9000FBE7018811B9421892780AB10120704798
:109CA000491C0829F7D30020704710B50C4603461D
:109CB000FFF7EFFF00280AD018882188884205D1D5
:109CC0000822A11C981CFCF7FCFB08B1002010BD69
:109CD000012010BD142804D2024A00EB800022F8B3
:109CE000101070470828002070B50546FFF75CFF8C
:109CF0000446284603F02EFA002808D1142C06D278
:109D0000034B04EB84024FF6FF7123F8121070BD71
:109D10000828002010B50446142808D2FDF72CFFAF
:109D200028B1044904EB840031F8100010BD4FF64F
:109D3000FF7010BD082800203EB5044603F08AFBE2
:109D40000EE0019920464631FFF7AFFF28B901998F
:109D500020462A31FFF7A9FF10B1BDF808003EBD2B
:109D60006A4602A9072003F049FB0028E9D14FF613
:109D7000FF703EBD10B50A4941600A4800F094FEEC
:109D800058B902F06DFA07491C238C220874044864
:109D90008C39001F006800F0EDFD002010BD0000B0
:109DA00004060300702E00202DE9F0412D4F002500
:109DB00018B17D600120BDE8F0810879012258B119
:109DC000294E01280CD0274C4FF0020808340228F5
:109DD00021D0032842D128E00A7103F015F83BE0B6
:109DE0005FF0000000EB800116F82110022908D076
:109DF000401C80B20228F5D33A707D6041F61D50B8
:109E0000D9E700EB800006F8205006EB80004068A0
:109E100002F0ECFF20E00D71A4F804800023012281
:109E20001248216801F082F916E00D71206802F0F5
:109E3000DDFF0D4923682831498801EB810206EBDB
:109E40008201D1F804C0C4F800C04B60A3880B8124
:109E5000A4F8048006F822500028ACD07D600E20C3
:109E6000A9E70000742300209C2D00200C24002072
:109E70000146034802888A4200D000207047000053
:109E8000602700202DE9FC5F0E008346DDE90C47CA
:109E9000C6F1000098469246814600D40846012546
:109EA00003E000BF90FBFAF06D1C5045FADAA845BC
:109EB00000D9454624B1002E01DB780700D5641E89
:109EC000B80702D5B8F1000F0AD0F80708D13CB1A5
:109ED000A54205D220215846641EFEF717FBF6E77F
:109EE000002E02DA4E462D2102E0780703D52B2101
:109EF0005846FEF70BFB07F0030002280BD1B8F120
:109F0000000F08D13CB1A54205D230215846641E4D
:109F1000FEF7FCFAF6E7CDE90047434652463146E4
:109F2000584605F069FEBDE8FC9F000070B50D467F
:109F3000044600684FF4887102F028FA4FF49071DB
:109F4000206802F023FA4FF49271206802F01EFAA2
:109F50004FF4A271206802F019FA20681249C0F883
:109F600004132068690740F30730090E002806DA59
:109F700000F00F0000F1E02080F8141D03E000F174
:109F8000E02080F800142068012140F3073000F041
:109F90001F0291404009800000F1E020C0F88012CB
:109FA000C0F8001170BD000010030200024600203E
:109FB0001268530713D502F00300012802D00228CB
:109FC0000CD105E0C2F383100B68801C184404E038
:109FD0000223086803EB9252104408600120704786
:109FE0000248007A002800D001207047702E00201F
:109FF000F0B58488A518944200D82246A41AC288D5
:10A00000D6189A4200D81346D21A4B880788BB420A
:10A010000CD34088834209D88888A04206D3A8423E
:10A0200004D8C888904201D3B04201D90020F0BDC5
:10A030000120F0BD0021425C0AB101207047491C9B
:10A040001029F8D300207047800701D00020704706
:10A05000012070470A4810B5807860B1002401E003
:10A06000022C06D02046FDF7C5FF641C042CF7D354
:10A0700010BD0324F6E7BDE81040FDF7DBBF00008C
:10A080002822002003480179C90702D00078FEF792
:10A090000DB970472822002017210180418000213E
:10A0A000017141711B218171C17170472DE9FE4F12
:10A0B0002E4F984692460D00814601D000260DE0B5
:10A0C000684600F013FC6A460021484602F096FFFD
:10A0D0003878009E10B99DF8090098B15246314673
:10A0E000484605F0ABF90446014600224846FFF712
:10A0F000ABF80D2C37D008DCA4B3082C33D00B2CD4
:10A1000009D130E00520BDE8FE8F112C1ED0A4F54A
:10A110004050023827D0204602F018F90246144871
:10A1200014494B46401AC008012101EB0040124976
:10A1300001F003FD5FF00305B8F1000F04D03246D3
:10A1400021464846FEF71EFE2846DCE72A46F978F7
:10A150004846FDF7F1FC5246B9784846FDF7ECFC5D
:10A160000025E9E7FFE72546E6E70000EC220020AE
:10A17000E41D03009C1D03004015030070B50E464E
:10A180000C49154604460978FDF7BEFC00280FD09F
:10A19000204602F0D9FE00282A463146204603D048
:10A1A000BDE8704002F0D6BEBDE87040FEF74ABD83
:10A1B00070BD0000E422002070B5094D0646A97864
:10A1C000FDF7A2FC0446E9783046FDF79DFC014608
:10A1D00022463046BDE870400123FFF767BF00000C
:10A1E000EC2200202DE9F047394E002780463D46FD
:10A1F000DFF8E090D6F804A057E003D00446D0F88A
:10A200001C8035E099F8002002EB4201521CD2B2CA
:10A2100089F8002009EBC10199F80230091D9A4222
:10A2200001D189F8005048680A780446012A12D002
:10A23000022A02D0032A3BD108E005F0AFFA00B1B0
:10A240000127257434E00574C06900E070680028B7
:10A25000F9D170602CE0207C50BB88686060C868D1
:10A26000A0600869E0604869A061F07800B16560AD
:10A270006268B168184B501A20F07F40984202D2B1
:10A28000A168084406E0881AA16820F07F40814256
:10A2900002D9081A206000E0256065600120A560F1
:10A2A00020742046E56105F05BFAB8F10000A4D106
:10A2B00099F8001099F801008142A3D117B971688B
:10A2C000514502D00120BDE8F0870020FBE70000E7
:10A2D00040230020CC2B0020FFFF7F00F0B587B08B
:10A2E0000546002718216846FCF7D9F8A5F57F40F8
:10A2F000ADF80250FF3825D02846FFF7A3FA040036
:10A3000022D01B481B49401AC6080B2C22D0112C06
:10A310001ED0A4F5405002380ED0204602F016F8A8
:10A320000246012000EB06402B46134901F005FCD4
:10A330002146284604F0A8FD10483A468178284670
:10A34000FDF7FAFB07B0F0BD0E208DF800000BE022
:10A350000127F1E70F208DF80000022000EB0640F6
:10A360002A46074901F0E2FB6846FEF761FDE3E794
:10A370009C1D03009C1D0300C4090300482200200B
:10A38000180A03000A4602494978FDF7D5BB0000C8
:10A39000482200202DE9F041002786B080463E4645
:10A3A000FFF798FA040022D0112C22D01B481C4938
:10A3B000401AC508862C1ED0A4F5405002380ED095
:10A3C000204601F0C3FF0246012000EB0540434652
:10A3D00014A101F0B2FB2146404604F055FD394678
:10A3E0004046FFF7CFFF06B03046BDE8F0810126BA
:10A3F000F5E70127F3E718221A496846FCF736F813
:10A400000220ADF8028000EB0540424616A101F0A3
:10A410008DFB6846FEF70CFDE1E700009C1D030084
:10A420009C1D03006773636D5F6C6F63616C5F6499
:10A43000625F63616368655F757064617465282934
:10A440002072657475726E656420257320666F7264
:10A4500020636F6E6E5F68616E646C653A20256480
:10A4600000000000D4030300466C61736820667529
:10A470006C6C2E20436F756C64206E6F7420737447
:10A480006F7265206461746120666F7220636F6E05
:10A490006E5F68616E646C653A20256400000000A0
:10A4A0002DE9FF410026234800F0FBFA2148001F58
:10A4B000074600F0F6FA204C60680090A56800E0BE
:10A4C00000986946284004EB80000C30FFF76EFDD1
:10A4D0000028F5D101AA009901EA050304EB8303E2
:10A4E000491CDB6842F82030401C00910228F2D35E
:10A4F000019800F0030001280BD0022810D1019828
:10A50000032101EB90500099BDF80A6001EB900027
:10A5100005E00198BDF80A60C0F38310084400907C
:10A52000384600F0BBFA08B10098606004B03046CD
:10A53000BDE8F0814034002028300020ACB04FF45A
:10A540000041002001F06AFB08B1FCF7B9FC01F002
:10A55000C1F9FCF7D5FC08B1FCF7B2FC5F4A012158
:10A560005F48FCF7B9FC08B1FCF7AAFC5D49032081
:10A57000FDF752FE08B1FCF7A3FC69460020FDF789
:10A580007DFD08B1FCF79CFC9DF8000002287CD002
:10A590005FF0000501F058FC08B1FCF791FC01F0F8
:10A5A00013FE08B1FCF78CFC0024694601200094DE
:10A5B00001F09AFC08B1FCF783FC684601F014FD39
:10A5C00008B1FCF77DFC9DF8080047A120F00F00C2
:10A5D000401C20F0F00010308DF80800052202A881
:10A5E0007CDF08B1FCF76CFC00945020ADF8000053
:10A5F000A0200194ADF80200ADF804404FF4C870FB
:10A60000ADF8060068467ADF08B1FCF759FC002176
:10A61000374800F0DCFA08B1FCF752FC04F066FDA4
:10A62000AC216846FBF73BFF02208DF83C0001207F
:10A630008DF83E000621ADF810008DF87C008DF8F5
:10A6400003104FF496702B492290059144F250600C
:10A65000239029482990264869462030FCF746FF78
:10A6600008B1FCF72DFC224801212030FCF73BFF0C
:10A670001C216846FBF713FF4FF42030CDE9004062
:10A680004FF470200326029000E024E01B48059060
:10A690001B488DF80C600690ADF80E408DF8104008
:10A6A0006846FDF797F908B1FCF70AFC03F05AF881
:10A6B00014481549401AC00806EB004013A101F0E8
:10A6C00031FA2846FCF712FB01F012F90028FBD101
:10A6D00001F0CEFBF8E701255CE7000031A902009C
:10A6E0006003030071810200416C61726D00000023
:10A6F0005C24002024220020B1CA020039CB0200D1
:10A70000038802002C1E03009C1D030054656D701D
:10A710006C617465206578616D706C65207374611F
:10A72000727465642E00000070B5144682880E466F
:10A7300005462088111D0144921C994201D8FE2A29
:10A7400001D90C2070BD521C32542088FF21401CBE
:10A7500080B2208031542088401C80B22080811932
:10A76000288805F033FA2188084480B22080AA881E
:10A7700042B1A96841B13044FBF778FE2088A9882E
:10A7800008442080002070BD072070BD2DE9F047EF
:10A79000C5881E1DB6FBF5F78946B6FBF5F10446E4
:10A7A00005FB176C407916686843DDF820A0F718A0
:10A7B000001F874200D9C61A166001E02468491EAE
:10A7C0000029FBD1A5EB0C078846B74216D818E044
:10A7D00004EB0C00001D09EB0803BAF1000F3A4628
:10A7E00002D00146184600E01946FBF73FFE2468F8
:10A7F000F61B4FF0000CB844B54201D9374600E0D3
:10A800002F46002EE4D1BDE8F087000030B50246A7
:10A8100051B101F021FA0021074C08E034F8213051
:10A820001568AB4202D11160002030BD491C814245
:10A83000F4D3052030BD000000000000BFF35F8F9F
:10A8400000F017B9F8B50F460178144605460129FE
:10A8500001D1687830B12088821C9A4232D801290F
:10A8600002D006E00720F8BD69780144891C9942AE
:10A8700028D8181A801E86B2ADF800602188B81C4E
:10A88000084469467DDF0028EDD12978022904D0EB
:10A890006878BDF80020904205D3BDF80000B042B2
:10A8A00001D809200AE00820012905D16978B142C0
:10A8B00002D8ADF8001001E0ADF80060BDF800105E
:10A8C000FE2901D90C20F8BD2288491CB9542188E1
:10A8D000491C89B2218078542088401C2080BDF812
:10A8E0000010084420800020F8BD0000034A002129
:10A8F0009268C0E90021816070470000EC220020CE
:10A9000070B54FF6FF750E46A84201D1002000E059
:10A91000401C84B208E02146304600F0AAF808B195
:10A92000204670BD641CA4B2FF2CF4D9284670BD2B
:10A930000A4810B50178102901D100210170C9B26F
:10A94000491CC9B201700648FCF7C7FF002803D0B4
:10A95000BDE81040FCF7B4BA10BD00002022002072
:10A960004024002010B5FBF7A0FC08B1002010BD6A
:10A97000112010BD10B531B1B2FBF3F403FB142468
:10A980001CB1092010BD0E2010BD016000214160E6
:10A9900081608281C381084610BD70B50C460546B2
:10A9A000FBF738FC002802D021882868084470BDD5
:10A9B00010B50A8849888A4203D1FBF76DFC012053
:10A9C00010BD002010BD70B50C460546FBF747FCD6
:10A9D000002802D061882868084470BD10B50A8834
:10A9E00049888A4203D1FBF731FC012010BD0020C9
:10A9F00010BD01F01F0301229A40D243490900EB28
:10AA00008100114600F059B80A4601F01F030121E8
:10AA1000994010B552090C4600EB820000F05DF839
:10AA2000204000D0012010BD2DE9F04180460D46A8
:10AA30000024481E012101EB501716E058F82400AD
:10AA4000C04390FAA0F0B0FA80F020280CD200EBBE
:10AA50004416AE4208D231464046FFF7D5FF0028E3
:10AA6000ECD13046BDE8F081641CA742E6D8284608
:10AA7000F8E74A0950F8220001F01F020121914035
:10AA8000084000D00120704701F01F0301229A40C6
:10AA9000490900EB8100114600F029B8002100F0BF
:10AAA00017B8012100F023B8012100F016B808B54D
:10AAB0006A46FBF746FC009808BD08B56A46FBF7F6
:10AAC00026FC009808BD08B56A46FBF73AFC08BDAD
:10AAD00008B56A46FBF71BFC08BD08B56A46FBF7DC
:10AAE00009FC08BD08B56A46FBF7F8FB08BD08B5C8
:10AAF0006A46FBF7FFFB009808BD08B56A46FBF7FE
:10AB00002DFC009808BD38B5044600258DF800508E
:10AB10006846FCF773FA21686268086890420ED9AB
:10AB2000401E08600178238AE26801FB0325227A2F
:10AB30002168101AC0B20A79824200D208719DF8C9
:10AB40000000FCF77FFA284638BD38B505460020DE
:10AB50008DF800000C466846FCF750FAE868298A30
:10AB6000201AB0FBF1F12A681068431C13600170D1
:10AB70009DF80000FCF766FA38BD10B530B1017AD7
:10AB800042680368891AC9B21A6006E00E2010BD37
:10AB900003681A68541C1C601170491EC9B2F7D2B0
:10ABA000006800210171084610BDC20800F00703CB
:10ABB0000120895C98400840704710B5C20800F039
:10ABC0000703885C01249C402043885410BD10B5C5
:10ABD00060B10161172120F8021B20F8021B1B2124
:10ABE00000F8021BFFF758FA002010BD0E2010BD20
:10ABF000F0B5858893B00C46002D39D10188002628
:10AC00003F4F24293BD006DC102909D011290CD054
:10AC1000232958D14FE03A290BD0552953D129E0A7
:10AC20000146204601F096FF4DE0A01DFFF734FAE3
:10AC300049E02246408934F8061F814200D8084680
:10AC40006080172800D217206080106970B1607989
:10AC500060B1D7E90001CDE90301ADF80E5060887D
:10AC6000ADF81000136903A9104698476671267164
:10AC700013B0F0BD0146204601F0C0FF23E0011DE6
:10AC80002C2206A8FBF7F2FBBDF81800BDF81C202B
:10AC900004EBC0014A732269AAB1D7E90423CDE9C4
:10ACA0000423ADF81200487B8DF814002269204679
:10ACB00004A9904707E0017A207B884200D2014630
:10ACC0002846FDF791FEA07A0028D1D0E1882846D9
:10ACD000A5DF012580B11128CAD001F037FB02465B
:10ACE0000848094913B0401AC00805EB0040BDE808
:10ACF000F04006A100F01ABFA672E572B8E70000A6
:10AD00003C040300B41D03009C1D030073645F62D8
:10AD10006C655F67617474635F65786368616E67B3
:10AD2000655F6D74755F7265717565737428292030
:10AD300072657475726E65642025732E00000000C4
:10AD400020B10278DE2A03D0082070470E20704719
:10AD500041800020704760B159B10278DE2A0AD0E4
:10AD600009684160DE2101704FF6FF7141800020CB
:10AD700070470E207047082070477FB505460029B0
:10AD80004DD0002D4BD008780C46DE2847D1A8883E
:10AD90006188884202D1204604F0E6FF2888012815
:10ADA00025D002283BD011283AD0512837D135F888
:10ADB000040F6188884232D1A978A81C02292ED1BB
:10ADC000017A042903D0062901D0052927D10021C1
:10ADD000009102228DF8002001914FF4C07202917F
:10ADE0000391ADF80420007A05280FD010E0297AED
:10ADF0002046012913D1A988428891420FD101210F
:10AE0000017204B0BDE8704004F0AEBFADF80410AC
:10AE100028886946B0DF002801D0616888477FBD77
:10AE2000A88861888842FAD14FF6FF7060807FBDA4
:10AE300000F180400068002800D00120704708B56C
:10AE400000F18040002101600068009008BD000012
:10AE500070B50B4C207808B185250FE00020A0606C
:10AE600060602061E060074801F0AEFA054601F03D
:10AE7000F7F908B901F090FA01202070284670BD5A
:10AE8000EC2A00207586020038B500258DF80050A8
:10AE90006846FCF7B3F8074CE068401EE060E068E5
:10AEA00010B901F0A1FAA5709DF80000FCF7CAF8EE
:10AEB00038BD0000EC2A0020F0B50546047815489E
:10AEC00089B0164640F82420124A0869121DA2F1E2
:10AED000080742F82400487F385520226846FBF7CF
:10AEE000C5FA04942878385C48B10EB10A4A00E0EB
:10AEF00000226946281D01F0F7FC09B0F0BD0EB133
:10AF0000064A00E00022694605F10C0001F0BEFB94
:10AF1000F3E7000008230020A9FA0200F5F8020078
:10AF20000FB408B50399002904D004AA00926A4618
:10AF300000F00FF801B05DF814FB10B5826804460C
:10AF4000002A05D0D4E90403216898470020A060B6
:10AF500010BD2DE9FC4791460C00804676D014F8D0
:10AF6000011B39B125290ED04046FDF7CFFA2078D4
:10AF70000028F4D198F80C00002867D04046BDE8BE
:10AF8000FC47FFF7DABF0020012221782B291BD0D4
:10AF90002D2902D0302908D102E040F0010001E063
:10AFA00040F00200641C002AEFD100252A290ED0AF
:10AFB0002178A1F130020A2A11D205EB850201EBBA
:10AFC0004205641C303DF1E740F00400EAE7D9F89F
:10AFD00000100B1DC9F800300968641C0D4421786D
:10AFE00000232E290BD114F8011FA1F130020A2AE7
:10AFF00005D203EB830201EB4203303BF3E76C29FC
:10B000000DD068290BD0692921D00BDC252918D057
:10B01000582931D063290ED0642915D117E014F8CE
:10B02000011FECE7702969D0732932D075291BD034
:10B03000782909D120E0D9F80000011DC9F80010D5
:10B0400001784046FDF762FA641C90E76CE0D9F89D
:10B0500000100A1DC9F800200968CDE900500A2235
:10B060004046FEF70FFFEFE7D9F800100A1DC9F8B8
:10B07000002009680A2206E0D9F800100A1DC9F864
:10B08000002009681022CDE90050404604F0B4FDCC
:10B09000DAE7D9F8001000270A1DC9F800200E6869
:10B0A000C00705D112E04046761C7F1CFDF72EFA42
:10B0B00031780029F7D104E0202140466D1EFDF7CC
:10B0C00025FABD42C0D9002DF6D1BDE74EB13046BC
:10B0D000FBF7F0F9074604E0202140466D1EFDF71E
:10B0E00015FABD4206D9002DF6D103E04046761C84
:10B0F000FDF70CFA31780029F8D1A5E7D9F800005E
:10B10000011DC9F80010056830214046FDF7FEF921
:10B1100078214046FDF7FAF908200021CDE9000129
:10B12000034610222946B0E7BDE8FC872DE9F84325
:10B13000884605002C482D499946A0EB01004FEAAE
:10B14000D0004FF00101164601EB004424D02868DE
:10B1500000282CD0002E34D0696840464FF01007EC
:10B160000A68511E11EA080F11D1014672432846A0
:10B17000FBF795FD00282ED028684B46324604691F
:10B1800001B041462846A446BDE8F043604720464A
:10B19000174B18A2009722E00E2000902046144B77
:10B1A0001EA220A100F0D1FC0E20BDE8F8830820EB
:10B1B000009020460E4B26A21AA100F0C6FC0820E3
:10B1C000F3E7092000902046094B24A215A100F0C6
:10B1D000BCFC0920E9E7064B214A2046009711A153
:10B1E00000F0B3FC1020E0E71C1E03009C1D0300D0
:10B1F000EB050300616464725F69735F706167658A
:10B200005F616C69676E656428705F66732C20707F
:10B210006167655F6164647229000000705F667336
:10B2200000000000257320636865636B2066616918
:10B230006C656420696E20257328292077697468FD
:10B240002076616C756520307825782E000000002E
:10B25000705F66732D3E705F617069006C656E0093
:10B260000416030038B503001148124D4FF00E04C8
:10B27000A0EB05004FEAD0004FF0010505EB0040C0
:10B2800009D061B119600C6801B0A446BDE8304036
:10B29000114618466047084B08A2009402E0064B8E
:10B2A00008A2009409A100F050FC0E2038BD000057
:10B2B0001C1E03009C1D0300A0050300705F667345
:10B2C00000000000705F617069000000257320635A
:10B2D0006865636B206661696C656420696E202512
:10B2E00073282920776974682076616C7565203031
:10B2F0007825782E00000000044801214174007A6E
:10B3000008B100207047012070470000702E002017
:10B31000012801D0032808D10449002201284A74D9
:10B3200000D00020087403F0C5B97047702E0020CB
:10B3300070B50246022801D0032A45D1234C207A59
:10B34000002841D0012833D0022831D120480023E1
:10B35000022A006802D0032A2AD11BE0E3600179A7
:10B3600011B1012924D10DE0D0E90565711B4FF41D
:10B370008056B14200D33146294481614569A942D2
:10B380000ED015E00169491C0161426991420FD15B
:10B39000237213E0E168491CE160082908D9E360E1
:10B3A0002372022A0AD00D21FDF7C2FC03F028F90E
:10B3B000607C28B1BDE8704000F058BF0021F3E781
:10B3C000BDE8704003F076B970BD0000702E00201B
:10B3D000842300202DE9F84F90468A463A493B4A9B
:10B3E0000500A1EB02014FEAD1014FF00102DDF8A7
:10B3F00028901E464FF00E0002EB01441AD0B8F11F
:10B40000000F1CD02868002822D00920002E29D047
:10B4100069684968B6FBF1F201FB1261002926D088
:10B4200000902B4B20462BA235A100F08EFB09206B
:10B43000BDE8F88F00902046254B3CA203E0009029
:10B44000234B20463BA22EA100F07FFB0E20EFE70E
:10B450000820009020461E4B38A229A100F075FB61
:10B460000820E5E700902046194B37A2DCE750465C
:10B47000FBF70FFC102798B14046FBF70AFCA0B180
:10B48000324651462846FBF70AFC98B1CDF80090A9
:10B49000286833464246C46851462846A047C7E755
:10B4A00020460B4B29A2009708E02046084B2DA20E
:10B4B000009703E0064B204633A2009710A100F04E
:10B4C00044FB1020B4E700001C1E03009C1D030079
:10B4D000D805030021286C656E202520705F6673F7
:10B4E0002D3E705F666C6173685F696E666F2D3E9E
:10B4F00070726F6772616D5F756E6974290000000C
:10B50000257320636865636B206661696C656420E0
:10B51000696E202573282920776974682076616C0C
:10B52000756520307825782E00000000705F667306
:10B5300000000000705F737263000000705F66734C
:10B540002D3E705F617069006C656E0061646472AD
:10B550005F69735F616C69676E6564333228646527
:10B5600073742900616464725F69735F616C6967F9
:10B570006E65643332282875696E7433325F7429BE
:10B58000705F737263290000616464725F69735F46
:10B5900077697468696E5F626F756E647328705F37
:10B5A00066732C20646573742C206C656E29000012
:10B5B00070B541EA4201DDE904564FF0A04441EA8A
:10B5C000830141EA052104EB800041EA0641C0F80D
:10B5D000001770BD70B541EA4201DDE904564FF035
:10B5E000A04441EA830141EA052104EB800041EADD
:10B5F0000641C0F8001770BD70B541EA4201DDE9AF
:10B6000004564FF0A04441EA830141EA052104EBCE
:10B61000800041EA0641C0F8001770BD70B541EAEC
:10B620004201DDE904564FF0A04441EA830141EABA
:10B63000052104EB800041EA0641C0F8001770BD07
:10B640001CB5002100910B4601220191FFF7D4FFA8
:10B650001CBD1CB5002100910B4601220191FFF792
:10B66000DDFF1CBD1CB500220B4600921146019265
:10B67000FFF7C2FF1CBD1CB500220B46009211460D
:10B680000192FFF7CBFF1CBD1CB5002100910B46BA
:10B69000012201911146FFF7AFFF1CBD1CB500212F
:10B6A00000910B46012201911146FFF7B7FF1CBD27
:10B6B0004FF0A04202EB8000D0F8002722F4403285
:10B6C000C0F80027D0F8002742EA0141C0F800176F
:10B6D000704701224FF0A043824011B1C3F8082502
:10B6E0007047C3F80C25704718B5084B6C460144E9
:10B6F0001B68009306E000BF54F82030D3F81035E3
:10B70000401C08C28142F7D818BD00005405030050
:10B71000034908B50844002101600068009008BD95
:10B720000060004002494058012800D000207047C6
:10B730000060004030B5154A01460020D2F81044A0
:10B7400023460AE0DB681D79854205D1401C0A28A2
:10B75000F6DB4FF0FF3030BD1B68002BF2D1431CED
:10B76000F9D0CB681871D2F8103443B1DB68CC68DB
:10B770001B682360D2F81024D268116030BDC2F873
:10B780001014C96800220A6030BD00002830002073
:10B79000F0B595B01C4615460F4608461A9E00F0B7
:10B7A0002DFB182109A8FAF77AFE0E96CDE9095467
:10B7B0000023082203A9384600F035FB05980690BF
:10B7C000BDF81000ADF81C00BDF81200ADF81E0069
:10B7D00000208DF821000398082600F003000128BE
:10B7E00002D0022818D032E003983346850AC0F30D
:10B7F000C2008DF8200003980FA9C0F38314A200A3
:10B80000384600F010FB09A8009006AB22460FA9AD
:10B81000284600F04FFA1AE00398840DC0F3C200E6
:10B820008DF82000082C01D2254600E0082533467B
:10B830002A460FA9384600F0F6FA2E44641B09ABDD
:10B8400006AA29460FA800F093F9002CEAD1384641
:10B8500000F0DAFA15B0F0BD7047012004F068B8C6
:10B86000084810B50178084A515C19B1001D01F073
:10B87000C7F802E00C3000F0D5FFBDE81040002012
:10B8800004F056B8982300200423002008B5034A8A
:10B8900000924023024AFFF77BFF08BDD9EE020069
:10B8A000902E00200A4A012902EBC00007D002298D
:10B8B00007D0032907D0042907D0002070470220B1
:10B8C0007047042070470079704740797047000046
:10B8D0009C1D030010B5FFF7C0FF04210348FFF7CC
:10B8E00029FF02490120C968487110BD8C1D030061
:10B8F0002DE9F04F8DB0FCF719FE18B100200DB006
:10B90000BDE8F08F7E4C4FF0000BC4F818B4BFF3C5
:10B910004F8F60680290A568D846284004EB8000ED
:10B920000CE000BFD4F8180470B921680298814275
:10B9300001D86160E2E7284004EB80000C3002A9E6
:10B94000FEF734FB0028EDD1002005AA029901EA98
:10B95000050304EB8303491CDB6842F82030401CDC
:10B9600002910228F2D3059800F00300022802D0C9
:10B9700001284DD0AAE005985022810D8946B2EBEE
:10B98000905F00D850210E4666F39F500590083115
:10B990005C4800F0EAF9070078D000F02FFA43463F
:10B9A000082205A9384600F046FA029908F1080A6B
:10B9B0002940681A8000001D864222D9504D0C355E
:10B9C00030B1C2B204EB8101301A90460C3104E070
:10B9D0002946F2B2002590462846C6B2534638465C
:10B9E00000F029FA0AEB080325B132462946384609
:10B9F00000F021FA029909F1030001EB9000029096
:10BA00003BE004EB81015346324638460C31EFE708
:10BA10000598C0F38310062800D30620059960F32B
:10BA20008911C1F38310801C05918100354800F015
:10BA30009CF907004AD000F0E1F94346082205A925
:10BA4000384600F0F8F908F1080800260FE00298DF
:10BA5000434600EA0501401C04EB810102900422E8
:10BA600038460C3100F0E7F908F10408761C059817
:10BA7000C0F38310B042EAD847B1D4F81054D4F8D8
:10BA8000180478B1384600F0BFF934E01EE0E868E9
:10BA90004079012804D12A6828463946126890471F
:10BAA000E8680568002DF2D1384600F0ADF98DF850
:10BAB00000B06846FBF7A2FAD4F8180408B9029857
:10BAC00060609DF80000FBF7BDFA14E0D4F8104464
:10BAD00005E02168204689688847E0680468002CF2
