:020000040002F8
:1060000008590020C1630200C9630200CB6302008B
:10601000CD630200CF630200D163020000000000E4
:10602000000000000000000000000000D363020038
:10603000D563020000000000D7630200D9630200AC
:1060400055670200DB630200556B0200DB63020050
:10605000DB630200DB6302008D650200DB6302008C
:10606000DB630200DB630200DB630200DB63020030
:10607000DB630200DB630200DB630200DB63020020
:10608000DB630200AD670200DB630200DB6302003A
:1060900031680200DB63020035680200DB63020046
:1060A000DB630200DB630200DB630200DB630200F0
:1060B000DB630200DB630200000000000000000060
:1060C000DB630200DB630200DB630200DB630200D0
:1060D000DB630200DB630200DB6302000000000000
:1060E00000000000000000000000000000000000B0
:1060F00000000000000000000000000000000000A0
:10610000000000000000000000000000000000008F
:10611000000000000000000000000000000000007F
:10612000000000000000000000000000000000006F
:10613000000000000000000000000000000000005F
:10614000000000000000000000000000000000004F
:10615000000000000000000000000000000000003F
:10616000000000000000000000000000000000002F
:10617000000000000000000000000000000000001F
:10618000000000000000000000000000000000000F
:1061900000000000000000000000000000000000FF
:1061A00000000000000000000000000000000000EF
:1061B00000000000000000000000000000000000DF
:1061C00000000000000000000000000000000000CF
:1061D00000000000000000000000000000000000BF
:1061E00000000000000000000000000000000000AF
:1061F000000000000000000000000000000000009F
:10620000DFF80CD000F084F90048004705A902002F
:106210000859002030B450E8012F93B2C4892344B8
:106220008489A34228BF1B1B0489A34202BFBFF37A
:106230002F8F002007E0C3EA020340E80134002C5E
:10624000E9D14FF001000A6030BC704750E8012FDF
:10625000C2EA024240E801210029F7D1704730B478
:1062600050E8022F1FFAA2F3C488A34202BFBFF373
:106270002F8F00200DE0C48923448489A34228BFC6
:106280001B1BC2EA034340E80234002CE8D14FF064
:1062900001000A6030BC704750E8022FC2EA224277
:1062A00040E802210029F7D17047034653E8022F46
:1062B000D988B2EB324F4FF0000017BF92B241EADB
:1062C000014142EA014104E05A68B2EB324F08BF93
:1062D000012043E80212002AE8D1704730B4044696
:1062E00054E8000F0D4644E80053002BF8D1156028
:1062F00030BC704730B4044654E8000F40EA010552
:1063000044E80053002BF7D1156030BC704730B41F
:10631000044654E8000F00EA010544E80053002B4E
:10632000F7D1156030BC704730B4044654E8000F14
:1063300080EA010544E80053002BF7D1156030BC1A
:10634000704730B4044654E8000F00EB010544E800
:106350000053002BF7D1156030BC704730B40446B1
:1063600054E8000FA0EB010544E80053002BF7D1DF
:10637000156030BC704770B404464FF0000054E81C
:10638000006F0D68AE4207BF44E80023012044E8D7
:1063900000630E60002B1CBF0020F0E770BC70474C
:1063A00030B4044654E8000F88422CBF451A054615
:1063B00044E80053002BF5D1156030BC7047000055
:1063C0000648804706480047FEE7FEE7FEE7FEE78F
:1063D000FEE7FEE7FEE7FEE7FEE7FEE739680200BC
:1063E000016202002DE9F05F0546002092469B46BF
:1063F00088460646814640241BE0284641464746DB
:10640000224600F074F853465A46C01A914110D300
:1064100011461846224600F016F82D1A67EB0108BF
:106420004F4622460120002100F00DF817EB00092D
:106430004E41201EA4F10104DFDC484631462A46C5
:106440004346BDE8F09F202A04DB203A00FA02F11F
:10645000002070479140C2F1200320FA03F3194352
:1064600090407047004870478C0E030040EA0103DB
:106470009B0703D009E008C9121F08C0042AFAD2FA
:1064800003E011F8013B00F8013B521EF9D27047BE
:10649000D2B201E000F8012B491EFBD27047002266
:1064A000F6E710B513460A4604461946FFF7F0FF13
:1064B000204610BD421C10F8011B0029FBD1801A98
:1064C000704730B504460020034600E05B1C934251
:1064D00003D2E05CCD5C401BF8D030BD034611F820
:1064E000012B00F8012B002AF9D118467047202A09
:1064F00004DB203A21FA02F00021704721FA02F36E
:10650000D040C2F120029140084319467047000074
:10651000064C074D06E0E06840F0010394E80700F0
:1065200098471034AC42F6D3FFF76EFE0423030005
:106530002423030070B58C1810F8015B15F00703D5
:1065400001D110F8013B2A1106D110F8012B03E00C
:1065500010F8016B01F8016B5B1EF9D12B0705D414
:106560000023521E0DD401F8013BFAE710F8013B5D
:10657000CB1A921C03E013F8015B01F8015B521E79
:10658000F9D5A142D8D3002070BD00002DE9F04715
:1065900000268AB0DFF85091B0464FF48075012490
:1065A00037460696284605F0BBFA38B1D9F80403F9
:1065B000204203D0284605F0A9FA26432D1D640089
:1065C0007F1CADB2082FEDD34FF4BE74204605F00A
:1065D000A7FA48B1204605F099FA46F0004606AA07
:1065E0000121002005F07EFA404D16F0FF0F15D076
:1065F0000127002437420DD009EB8401D1F81005A2
:10660000D1F81015C0F3042055F82420C1F301413E
:1066100002B190477F00641C082CEBD3002E5FDA98
:106620004FF0FF30CDF8108054E0281910F8507F5B
:1066300090F9000027F0C008401C3BD007A9404655
:1066400004F0A3FC10B34FEA9719404602F0C8F9D2
:1066500055F820701FB1B9F1030F03D006E0B9F16E
:10666000030F27D104A9404604F097FC4FF0A04146
:1066700001EB8800D0F8000706A9C0F3014A4046A4
:1066800004F083FC18B1BAF1020F03D012E0BAF1A2
:10669000030F0FD1B9F1030F08D1BAF1020F1DD0CA
:1066A0000221404605F002FA761CF6B217B14946BF
:1066B0004046B847641C042CB7D3002E10D06A465D
:1066C0000121002005F00EFA06990098884207D0B3
:1066D00006900498002634460790A6E70321E0E7D9
:1066E0000AB0BDE8F087000000600040142D0020D3
:1066F00000F01F02012191404009800000F1E020DC
:10670000C0F88012704700F01F020121914040093B
:10671000800000F1E020C0F80011704700F01F0277
:10672000012191404009800000F1E020C0F80012F2
:1067300070474907090E002806DA00F00F0000F143
:10674000E02080F8141D704700F1E02080F800146C
:106750007047000070B54FF48076304604F058FD65
:10676000114CB50560B1304604F059FD0120C5F863
:106770000803607920B901206071216800208847F2
:106780004FF48276304604F043FD00280AD03046AC
:1067900004F045FD0220C5F808032168BDE87040FB
:1067A0000120084770BD0000142300200748002185
:1067B000C0F84011C0F84411C0F84811C0F84C119D
:1067C000C0F80011C0F8041109F0CABA0010014065
:1067D00000F0C6B970B50E46144900EB400001EB5D
:1067E000C0051446E86A183520B101280FD00228E8
:1067F00005D113E0284600F0E7F9A04201D20024B9
:1068000011E022463146284600F016FA0BE02846F1
:1068100000F0DAF9A042F4D20446F2E73146284605
:1068200000F0DDF90446204670BD000080360020EF
:1068300009F0E4B905F0EABEF0B5B5480023021D41
:106840000178101D01254FF0805406290BD11678D0
:10685000360708D10678C6F30316032E06D0042E99
:1068600004D0052E02D0062907D00EE0B4F8246328
:10687000A84FC6F304263E6002E01678360704D11E
:106880000678C6F30316032E02D0062904D00FE0C3
:10689000A24FA14E7E670EE01678360708D1067823
:1068A000C6F30316032E06D0042E04D0052E02D004
:1068B000062907D00EE0D4F84462994FC6F3423659
:1068C0003E6002E01678360704D10678C6F3031658
:1068D000032E02D0062906D011E0924E376827F029
:1068E000807737600EE01678360708D10678C6F351
:1068F0000316032E06D0042E04D0052E02D006293E
:106900000AD011E04FF08046C6F80C31C6F81031BD
:10691000834E361F336002E01678360704D10678BE
:10692000C6F30316032E02D0062905D00CE07C4FD7
:10693000032664373E600AE01678360704D10678ED
:10694000C6F30316032E02D006290DD014E0764FAD
:1069500005263E60744E78363560734E08363360D7
:106960003F263F1D3E6002E01678360704D10678C8
:10697000C6F30316052E02D0062957D062E06B4EEF
:1069800036686B4F3E60694E361D36683F1D3E606F
:10699000664E083636683F1D3E60644E0C363668DB
:1069A0003F1D3E60614E103636683F1D3E605F4EB3
:1069B000143636683F1D3E605C4E183636685C4FB4
:1069C00020373E60594E1C3636683F1D3E60574E9C
:1069D000203636683F1D3E60544E243636683F1DD3
:1069E0003E60524E283636683F1D3E604F4E2C3674
:1069F00036683F1D3E604D4E303636684C4F40374E
:106A00003E604A4E343636683F1D3E60474E38364B
:106A100036683F1D3E60454E3C3636683F1D3E6041
:106A2000424E403636683F1D3E6002E0167836071B
:106A300008D10678C6F30316032E06D0042E04D020
:106A4000052E02D0062907D019E0D4F85812394A89
:106A500001F04F01116002E0117809070FD10078B1
:106A6000C0F30310032803D0042801D0052806D161
:106A700031480168C90702D06FF001010160D4F804
:106A80003001062808D1D4F83401062804D12B4857
:106A9000016841F48061016022487438016841F462
:106AA00070010160BFF34F8FBFF36F8F4FF0102164
:106AB000D1F80002002803DBD1F80402002822DA12
:106AC0001F4A15601F480468002CFCD01524C1F82B
:106AD00000420568002DFCD0C1F80442016800297D
:106AE000FCD0136001680029FCD0BFF34F8F0D4824
:106AF000F0380168144A01F4E06111430160BFF30A
:106B00004F8F00BFFDE7124910480860F0BD00003C
:106B1000E00F00F0403501400DF0ADBA00C0074075
:106B20003C050040FCED00E010560040040400105D
:106B300020C50040E40E0040000400403C17004027
:106B400004E5014000E401400400FA050090D00390
:106B50001824002001480068004700001C23002082
:106B600010B5124C02202061606111A0A06104F1F7
:106B70007800E0614FF4007020620020A062606243
:106B80000BA1A164E06204F51E71E1641021A0650F
:106B9000C4E91410E06509A1E01DFFF79FFC08A1FE
:106BA0002046FFF79BFC2020A07110BD80360020FE
:106BB0005465726D696E616C00000000525454009F
:106BC00053454747455200000269C1688A4203D8CD
:106BD0008068401A104400E0501A401E70472DE9AA
:106BE000F047C4681746894606464FF000083069EA
:106BF000A04201D9051B02E0B168201A0D1AB06845
:106C00006D1E001BA84200D80546BD4200D33D467C
:106C100070682A4620444946FFF728FCB0687F1B6D
:106C20002C44A844A944A04200D10024F460002FC1
:106C3000DDD14046BDE8F0872DE9F04104468846A5
:106C4000D4E90207C51BE168606816460844B542EE
:106C500006D94146FFF70AFCB819E060BDE8F081AB
:106C60002A464146FFF702FC761B08EB0501324637
:106C70006068FFF7FBFBE660F0E702E008C8121F60
:106C800008C1002AFAD170477047002001E001C115
:106C9000121F002AFBD170470121202803DA81400E
:106CA0000548014003E0402802DA2038814009B15C
:106CB0000120704700207047FC06FFBD2DE9F84316
:106CC000804643F2020659B9694607F07BF8B042A4
:106CD00002D008B100F0BAF99DF80000800744D452
:106CE0000021404607F0AAF805003ED0112D3CD007
:106CF0001F482049401AC708022000EB07440D2D09
:106D00000AD00B2D1DD0B5421FD11B49204642464B
:106D1000BDE8F84305F0F2B820464246174905F0B1
:106D2000EDF81321404676DF00281ED005F0F6FC72
:106D3000024601B020464346BDE8F04310A105F0ED
:106D4000E4B8204642461C49E2E7284605F0E6FC46
:106D50000246012000EB0740434618A105F0D5F894
:106D60002846BDE8F84300F071B9BDE8F88300009B
:106D70006C23030034230300B815030044150300FB
:106D800073645F626C655F6761705F646973636F92
:106D90006E6E65637428292072657475726E656401
:106DA000202573206F6E20636F6E6E5F68616E6466
:106DB0006C652025642E0000041603004173736582
:106DC0007274696E672E20706D5F636F6E6E5F7395
:106DD000656375726528292072657475726E6564C5
:106DE000202573206F6E20636F6E6E5F68616E6426
:106DF0006C652025642E000010B560B159B1027891
:106E00000B785208B2EB530F05D10622401C491CE7
:106E1000FFF757FB08B1002010BD012010BD80070F
:106E200001D00020704701207047C3688B4206D80C
:106E300011440069491E814201D801207047002099
:106E4000704710B501220221002001F083FB08B138
:106E5000072810D107220221012001F07BFB08B195
:106E6000072808D100210A22084601F073FB08B167
:106E7000072800D1002010BD10B560B10B480C49A7
:106E8000401AC008032101EB00400AA105F032F8C6
:106E900007F020FD03E003210A4800F0CCFD0028A4
:106EA00003D0BDE8104000F0D1B810BDC4230300EA
:106EB00034230300457261736520626F6E64732131
:106EC000000000009026002070B58CB015460E46DC
:106ED00000236C46C3F10F01415CE1545B1C102B95
:106EE000F8D30D2104F11000FFF7D9FA0020C0F10A
:106EF0000F02315C2244401C11740328F7D368460A
:106F000046DF0020C0F10F01214491F820102954E0
:106F1000401C0328F6D30CB070BD022001F024BA47
:106F20000149C97800F0C0BFE822002070B50024F4
:106F3000064D06E06868012110F8340005F052FCA7
:106F4000641C28788442F5D3002070BD28230020DB
:106F5000F8B515460C460646052A01D20720F8BDAD
:106F600005F03CFD18B905F001FD0028F7D11249E4
:106F700000224E600C708D60C1E90422C1E9062236
:106F80000E4D0DE006EBC4002968009181788DF864
:106F9000011000780A4A694605F076FC0028DED127
:106FA000641EE4B2EED2BDE8F84004480021054A70
:106FB000001D00F07FB8000028230020EC0A030029
:106FC000599B0200F98E020072B605F045F800BF29
:106FD00004F076FE0028FBD111481249401AC4087B
:106FE000012000EB044010A104F084FF1148006868
:106FF000C00700D000BE022000EB04400EA104F048
:1070000079FFBFF34F8F0B48E43801680E4A01F453
:10701000E06111430160BFF34F8F00BFFDE7000047
:10702000C423030034230300466174616C2065723D
:10703000726F7200F0ED00E053797374656D207229
:1070400065736574000000000400FA050EB50021A8
:107050000091CDE901106A4644F20100FFF7B4FF48
:107060000EBD10B58268C368934203D002F08CFA5B
:10707000002010BD052010BD29B112B1531E1342CE
:1070800003D0092070470E207047016083800021E3
:107090008160C1600846704710B58268C3689A1A5B
:1070A00083889A4203D802F079FA002010BD0420A8
:1070B00010BD0000084B9B7823B12AB120B10068B5
:1070C000037C1BB10820704707207047002303741E
:1070D0004174426118467047E02D002070B507F0FA
:1070E00029FF104800240B21047044700E4D81705C
:1070F00014206C602C706C70FFF7FAFA06211420D3
:10710000FFF717FB1420FFF7FEFA0848046006217A
:107110001120FFF70EFB0548001F0068A860002043
:1071200070BD0000E02D002048230020081501401C
:107130002DE9FC47DFF8789099F8023073B368B313
:10714000052902D20720BDE8FC87436933B3437C9D
:10715000012B25D0002704460025884616468DF8C9
:107160000050684600F0B4F801A809F0C9F8C8B1A9
:10717000012101700F4944600968C0E90218C0E9A3
:1071800004769DF8040089F801009DF8000000F0E5
:10719000C3F81420FFF7C2FA2846D4E70820D2E744
:1071A0000F46D8E704259DF8000000F0B5F8F3E796
:1071B000E02D0020041501400649897839B130B12D
:1071C000416921B100210174022108F0A5BD082008
:1071D00070470000E02D0020F0B5244E89B01F4616
:1071E0000D00044672603FD0A888296882B220480A
:1071F000FFF742FF002835D1A889A96882B21C4850
:107200001030FFF739FF00282CD120221949684699
:10721000FFF72CF960690690207C00B101208DF801
:1072200014008DF81C70607C00B10E208DF81500E4
:10723000E0680290A0680390206801906068009068
:107240000A480D4A6946083004F026F8002809D19A
:10725000B0702068401C05D004490122491CC81D9B
:1072600004F04EF809B0F0BD0720FBE79C23002096
:10727000A4300020200D030025FE020010B50146B9
:107280001048FFF709FF040019D10F480F4A017891
:10729000515C19B1001D05F023FE02E00C3005F031
:1072A00007FD60B9084907480839FFF7DAFE30B929
:1072B000054901220839044804F032F80446204602
:1072C00010BD0000B4300020A423002008230020BB
:1072D00030B5EFF3108172B60D4A9468012324B1E2
:1072E0000370002900D162B630BD93604FF0E023F7
:1072F000D3F88051074C25401560C3F88041D3F87E
:10730000844154605A17C3F8842100220270E8E7D0
:10731000EC2E0020FC06FFBD0B498A68002A11D024
:1073200000280FD1EFF3108072B60B684FF0E02207
:10733000C2F800314B68C2F8043100228A6000288C
:1073400000D162B670470000EC2E00202DE9F0411C
:10735000064608680C46411C4FF0A0474FF0010557
:1073600006D005FA00F1C7F80815206804F08AFB7A
:107370006068411C02D0002104F072FB3168A069F2
:10738000C1F82405607D227D31681043C1F86C0589
:10739000D4E900123068C0F81425C0F80C15207D1F
:1073A000012815D1A068411C02D0002104F058FB2F
:1073B000E068411C05D08540C7F80855E06804F036
:1073C00061FBD4E902123068C0F80825C0F8101536
:1073D000BDE8F0812DE9F041064608680C46411CE5
:1073E0004FF0A0474FF0010506D005FA00F1C7F8AD
:1073F0000815206804F050FB6068411C02D0002191
:1074000004F037FB3168A069C1F82405607D217D57
:1074100032680843C2F86C05D4E900123068C0F83D
:107420000C15C0F81425207D012815D1A068411C39
:1074300002D0002104F01DFBE068411C05D085400E
:10744000C7F80855E06804F027FBD4E90212306859
:10745000C0F80825C0F81015BDE8F08103F022B986
:107460002DE9F047814605884A484FF000088AB068
:1074700001784246284600F02FFD99F805004007A4
:1074800001D4002176E005F58077B8B201AB012286
:10749000072106F00BF904003F48404A4FF0010174
:1074A000A0EB02004FEAD00001EB00460AD02046D4
:1074B00005F034F9024630462B46394904F025FDE3
:1074C000214629E0284602F009FE4FF6FF710446E6
:1074D00088422BD18A46029802F06AFD0446504544
:1074E00010D00146284602F0D9FD2846FFF718FDC6
:1074F000E0B9284607F024FF2846FFF711FD0028D1
:10750000BFD013E006F09EFA0446504508D130463D
:1075100024A104F0EFFC0421284607F04FFFB0E758
:107520000146284602F0BAFD4FF00108B8B22246E3
:10753000072106F033F907001BD0862F1ED005F077
:10754000EDF8024630462B462349009404F0E5FC52
:107550003946284607F032FF0021484605F09AFFD9
:10756000B8F1000F02D0204602F0A2FD0AB0BDE83B
:10757000F0870121484605F08DFFF7E718221749EB
:1075800003A8FEF773FFADF80E5003A801F044FE08
:10759000EFE70000E82200207423030034230300F7
:1075A000BC180300436F756C64206E6F7420616CAF
:1075B0006C6F63617465206E657720706565725FBE
:1075C000696420666F7220696E636F6D696E6720F3
:1075D000626F6E642E00000068190300840A0300C5
:1075E00070B5160005461B481B4AA0EB02004FEA87
:1075F000D0004FF0010202EB004409D000203060BF
:1076000055B1286840B1A879800707D0072070BD20
:10761000204612A104F06EFC0E2070BD084600F05A
:10762000D3FBC0B2142808D0297981420BD8204658
:107630000EA104F05FFC042070BD204610A104F0F0
:1076400059FC052070BDEA88296800FB02103060F3
:10765000002070BDC4230300342303004E52465F54
:107660004552524F525F4E554C4C00004E52465FB1
:107670004552524F525F4E4F5F4D454D0000000046
:107680004E52465F4552524F525F4E4F545F464FE7
:10769000554E44002DE9FC47002517880646158005
:1076A00090F82D001446894630B13A4621464846A6
:1076B00000F03CFC051E09D1B0784FF00C0A18B35D
:1076C0002088C846001DB84202D95046BDE8FC8754
:1076D000684679DF0028F9D12088032108F80010D6
:1076E00020881921401C80B2208008F800102088D2
:1076F000401C80B2208000EB0801BDF8000008F0BB
:107700001FFD218808442080F0780222C8B121881A
:1077100096F9033001F1030C4846BC45D5D84254D4
:1077200021884FF0010C491C89B2218000F801C06A
:107730002188491C89B2218009F801302088401C29
:1077400020807068B8B1218890F9003001F1030CF5
:107750004846BC45B9D8425421880A22491C89B2FE
:10776000218042542188491C89B2218009F80130C6
:107770002088401C2080308950B1CDE900474B461D
:107780000622022106F1080008F0D2FD051E9DD157
:10779000308A50B1CDE900474B460722032106F15C
:1077A000100008F0C5FD051E90D1308B50B1CDE919
:1077B00000474B461522142106F1180008F0B8FDC9
:1077C000051E83D1306A30B13B462246494601F05E
:1077D000C6F9051EDBD1706A30B13B4622464946E8
:1077E00003F092F9051ED2D196F82C0038B13B4631
:1077F00022464946304607F0C3FE051EC7D1307801
:1078000038B13B4622464946304603F00BFA051E86
:10781000BDD128465AE718B504460020ADF800004F
:1078200013466A46204600F006F8002802D0BDF84C
:107830000000204418BD70B588B182B100241588BD
:1078400003E0065D641C3444A4B2A54203D80619C3
:1078500076789E4201D08C42F3D38C4201D3002033
:1078600070BDA11C1180005D401E80B270BD80F80B
:10787000301070472DE9F0470D00044606D02CB1BA
:1078800095F87A000026012803D006E00E20BDE816
:10789000F08795F89800012829D0D5F8A000042891
:1078A00025D0D5F89C00042821D04FF00109A670FE
:1078B0002C2205F17801201DFEF7D8FD84F83060F8
:1078C000D5F8A4006063D5F8A800A0634FF6FF7058
:1078D000A4F8480204F50D70C4F84402C4F84A62E2
:1078E000A4F84E6284F85062207810B104E00720BA
:1078F000CDE7FF2084F8540004F15501C4F8341298
:1079000094F82400EE274FF01F0801281FD0A4F898
:10791000388200BF04F50E722846FFF7BBFE002830
:10792000B5D115F13C0F18D004F24311C4F83C1244
:1079300094F8240001280DD0A4F8408204F51072B8
:1079400005F13C00FFF7A6FE0028A0D109E0A4F84D
:107950003872DFE7A4F84072F0E7C4F83C62A4F89C
:10796000406284F85190208BA4F8480084F83C9041
:10797000266484F85060606960644D4604F13C02FE
:10798000002104F1540072DF002880D125707EE7C9
:1079900010B50288102A1BD0112A20D0262A1DD10A
:1079A000007A0C46012801D0022817D1A0780521C1
:1079B000401CB0FBF1F201FB1201204600F03BF845
:1079C00000280BD0A16B002908D0BDE81040084763
:1079D000C27B012A02D18088A1F8480210BD0C4662
:1079E000002184F852128088B4F848128842F5D1F8
:1079F00020790028F2D10121DFE7704710B5044655
:107A000090F8540074DF012084F85202002084F8BA
:107A1000540284F850000621204601F0E4FD0028BD
:107A200008D1A178204600F006F810B1A16B01B191
:107A30008847002010BD2DE9F05F044600780F460E
:107A400098B1A7700025C4F84A52A4F84E5284F8A1
:107A50005052A079012608B1012F09D0E07980B1F8
:107A6000012F05D0022F03D00BE00820BDE8F09FC6
:107A7000616B21B184F851620820884701E084F8E5
:107A8000515204F24B2100200A5C0AB1304603E057
:107A9000401C0628F8D300204FF002084FF0030BDB
:107AA000012F06D0022F0CD0032F0FD0042F15D199
:107AB00010E0A17929B194F8241011B908B1304629
:107AC0000DE0E17911B108B1404608E0207A08B133
:107AD000584604E0607A08B1042000E02846A0700F
:107AE000616B41B1032801D0042804D1607910B141
:107AF00094F85202A0B184F8535204F13C001821CA
:107B00000746FEF7CCFC04F12C0084F83C6081466B
:107B100006F0C4F858B194F82C0084F8510008E03D
:107B200084F8545284F8536207208847E5E784F8C4
:107B3000516094F8240050B1484606F0AFF820B1E7
:107B400094F8280084F8520001E084F8526084F828
:107B50005050A27804F24A2104F50D794FF0060A3C
:107B6000052A62D2DFE802F07A030F22410084F88E
:107B70003160C4F84452C4E9101584F83C80802078
:107B8000A4F8480053E084F8318094F82420384663
:107B900012B10722027001E080F800B0228A8281CF
:107BA000C4F844524160E168B96040E06069B8607F
:107BB000208BB88194F824003D4610B184F83CA095
:107BC00001E084F83C60204608F076FB50B185F86F
:107BD00014800421204601F006FD30BB052184F805
:107BE000311020E084F831B01DE0E069B860208CED
:107BF000B88194F824003D4610B184F83CA001E01F
:107C000084F83C60204608F057FB48B185F81480A2
:107C10000421204601F0E7FC38B984F831A002E0E5
:107C2000042084F83100C4F84492A07878B13A4630
:107C300004F15400D4F8441272DF00287FF416AF28
:107C400094F8301094F8540073DF0028F6D1616B7B
:107C500011B194F831008847002007E784F83150CB
:107C6000F5E773B586B00025044601260095ADF80A
:107C7000006007A8ADF802500190E188E08A6A46EA
:107C8000ACDFD4B1E08AA0F57F41FF3917D002956F
:107C9000039504950595E088ADF80800BDF802004D
:107CA000ADF80C0001988DF80A60CDF810D0059061
:107CB000E08A02A9AEDF08B070BD0E20FBE7082005
:107CC000F9E7000030B585B00D46040022D00DB3B1
:107CD0004FF6FF70E082104B286820600FCB8DE8D4
:107CE0000F0004F11801684662DF002810D1207EE1
:107CF0008DF8120042F20150ADF81000221D04A9C7
:107D00000120A8DF002803D12946204600F0B6FF55
:107D100005B030BD0E20FBE7F008030000B50A46B1
:107D2000014687B0100015D0002913D00A88102A08
:107D300008D0112A10D0502A0CD107B05DF804EBFE
:107D400005F0E4B98988C18205218DF80010026828
:107D50006946904707B000BD4FF6FF71C182F9E751
:107D600070B5040012D001461C221448FEF77EFBB9
:107D70001248134D0560206850B17ADF002806D103
:107D80002068016829604068686005E00E2070BDC9
:107D90000B487BDF0028FAD108484FF6FF711438F2
:107DA000084A20F8041B0549343901600021FFF717
:107DB00081F90028EBD0032070BD00008829002045
:107DC000442200205102030010B5044600F0A4F83C
:107DD00008B1204610BD142010BD000010B50446A7
:107DE00000F09AF8002805D02146BDE8104002486E
:107DF00003F02FB810BD0000B429002070B515465F
:107E00000E46044608F064FA002809D0054800EB45
:107E1000840080692A463146BDE8704001F010BCFC
:107E200070BD0000A429002010B5044600F074F8CD
:107E3000002805D02146BDE81040024803F009B8EB
:107E400010BD0000B829002070B50546002400F0E0
:107E500063F838B12946044802F0FBFF08B1022458
:107E600000E00124204670BDB029002070B5054611
:107E7000002400F051F838B12946044802F0E9FF27
:107E800008B1022400E00124204670BDAC29002086
:107E900010B51821034802F0B7FF182800D0C0B26F
:107EA00010BD0000A429002070B505460C46084608
:107EB00008F00EFA60B1284600F02EF840B10548EF
:107EC000294600EB8400BDE87040183002F0C1BFC5
:107ED000002070BDA429002070B5054614460E464A
:107EE000084608F0F5F9002812D0284600F014F8EA
:107EF00000280DD00748294600EB860018301CB139
:107F0000BDE8704002F0B0BFBDE8704002F061BF54
:107F100070BD0000A4290020142801D30020704760
:107F20000146014802F095BFA82900207CB505460E
:107F300008880C460930904201D90C207CBD684667
:107F40006DDF0028FAD121880820685420881B2181
:107F5000401C80B2208029542088401C80B22080A0
:107F60002844DDF801100160BDF8051081802088EB
:107F7000801D80B220809DF80010490800D00121AA
:107F800029542088401C208000207CBD38B5018801
:107F90000446212934D016DC2048214A1029A0EBC0
:107FA00002004FEAD0004FF0030202EB004012D073
:107FB000112907D11BA103F09DFF4FF0A041102014
:107FC000C1F8080538BD3B2924D05629FAD180884C
:107FD000132176DF0EE017A103F08CFF072000F0DD
:107FE000DBFA08B1FFF732F81548A188418015483F
:107FF00003F096F80028E5D0BDE83840FFF726B832
:1080000000200090A08869468FDF0028DAD0FFF7B3
:108010001DF838BD8088132176DFEBE7C423030009
:1080200034230300446973636F6E6E656374656423
:108030002E000000436F6E6E65637465642E000051
:10804000202200208426002010B51A4C0188606888
:1080500010290ED011292BD1401E606028D1FEF7C7
:10806000F0FE002824D02168002921D0BDE810406E
:108070000847D0B900210122084600F06BFA08B188
:1080800007280FD107220221012000F063FA08B16E
:10809000072807D104220221002000F05BFA20B15A
:1080A000072802D0216801B188476068401C6060E1
:1080B00010BD00003C2200202DE9F04701883B4E16
:1080C00040F2F3194FF6FF7510291BD011293ED04D
:1080D000122954D0502946D1C188F289841D914279
:1080E00041D1618902293ED18688304602F0A4F848
:1080F000050038D004F10C0000F0F2F8A8B32946CE
:1081000030464EE0C17B8788044601292BD1A84622
:10811000284602F091F8050017D02F800020287221
:10812000234843464A460168C5F80A104068C5F826
:108130000E0004F1100105F10A0002F03DF9687229
:10814000F08900280FD129462AE0042013E0808816
:1081500002F072F8040006D06068FFF72DF808B14D
:1081600007F000F92580BDE8F087FFE76868FFF7B2
:1081700023F80028F7D0BDE8F04707F0F3B8878868
:108180000646384602F058F80400ECD02B464A4622
:1081900006F1080104F10A0002F00EF960722146AE
:1081A0003846BDE8F04700F021BD000088290020D6
:1081B000442200202DE9F04F0746858802883D487B
:1081C000012197B08346102A09D0112A49D01A2AD2
:1081D0006CD1387AB1EB101F45D2012244E0354C06
:1081E000083CA068C0430B9061680BA802F055FEE4
:1081F0000B990CA800F094FC2C220CA96846FEF701
:1082000035F90026E946A04610E000BF09EB46001C
:108210005FF00004B0F804A008EB84005146001D94
:1082200002F0D7FD641C1D2CF6D3761C0098B042DA
:10823000ECD8142D05D317B00420BDE8F04FFEF79D
:1082400005BF2946584602F00FFE294608F10400F2
:1082500002F00AFEF87B012828D016482946001DA6
:1082600015E029461AE000220221B1EB101F01D2CD
:10827000012600E000260F49083901F11000041D15
:10828000294682B102F0F0FD36B12946204617B0EA
:10829000BDE8F04F02F0E8BD2946204617B0BDE822
:1082A000F04F02F096BD02F094FDF5E717B0BDE87F
:1082B000F08F0000AC29002010B504460748007874
:1082C00000280AD0204601F0E5FD204607F0E2F93B
:1082D0002046BDE8104001F0C3BA10BD782200204E
:1082E000007800F0010070470149085C7047000009
:1082F000040903000649095C4FF0A040D0F81005BE
:10830000C84010F0010000D0012080F0010070474B
:10831000040903002DE9FC410646C0074FF00005A3
:108320000ED0104F00240122385D00950023114625
:10833000019503F04DFB641C042CF4D300F046F8C7
:10834000B0070DD5074E0024361D0022305D0323F3
:1083500000951146019503F03BFB641C042CF4D3FB
:10836000BDE8FC810009030007490B5C4FF0A04108
:10837000D1F804250120984020EA0203C1F808350D
:108380001040C1F80C057047000903000249085C61
:10839000012103F09CBB0000000903000249085CB6
:1083A000002103F094BB0000000903000649095CAA
:1083B0004FF0A040D0F80405C84010F0010000D0F4
:1083C000012080F0010070470009030010B500246F
:1083D0002046FFF7DBFF641C042CF9D310BD10B559
:1083E00000242046FFF7DAFF641C042CF9D310BDEB
:1083F00010B50246064B4FF0FF3000215C5C944202
:1084000001D1084610BD491C0429F7D310BD000056
:108410000409030070B50C4E0C004FF000053060ED
:108420000BD0012000F06AF808B1022004E000201F
:1084300000F064F800B10B202070706810B9FEF7EE
:1084400000FD0546284670BD3C22002010B50020E6
:1084500000F0DCF908B1062806D1012000F0D6F9B9
:1084600008B1062800D1002010BD00002DE9F0471A
:108470000D468146FFF7BCFF0446042836D2DFF8DC
:1084800074801B481C4EA8F10C0725B3012D0ED09B
:10849000022D2BD104EB440030444578002D25D02B
:1084A000B968002922D02846BDE8F047084704EB08
:1084B0004401755C0E44717849B10E4A4FF4004195
:1084C000093A8068FEF734FE08B987F80390B1785E
:1084D00008F80410E2E78068FEF76EFE04EB440142
:1084E000314418F804008D78A842D7D0BDE8F08751
:1084F000080903003822002028290020042801D27E
:10850000FFF7F8BE0020704710B5104A042807D0C6
:1085100007280FD00A2817D1BDE8104007F0A6B8E9
:108520001321508876DF0DE000280DD0BDE8104003
:10853000FEF78CBD5088A0F57F41FF3904D1044877
:10854000FFF75CFA0828EFD110BD000020220020C0
:108550009026002070B50023042810D20D4D00EBAA
:108560004004012A02D101290CD00022094E00EB5F
:108570004000304461B1012906D0022906D007230A
:10858000184670BD0E30C2B22A55F9E74270F7E7BF
:108590008270F5E728290020044A0146002012795C
:1085A000D20702D0084600F04DB870472C220020B8
:1085B00070B506461E480024C0E90161B00720D509
:1085C0000025012211462846FFF7C4FF6D1C044612
:1085D000042D02D2002CF4D013E094B940F266626C
:1085E00004211448FEF7B4FC04000AD1FEF79EFCF7
:1085F000040006D10F48104A0021001FFEF75AFD63
:108600000446F00712D00120FFF784FE74B9094830
:108610000A4A00210C38FEF74DFD040006D105483A
:10862000074A01210838FEF745FD0446204670BD83
:108630002C22002014090300D98802004DA4020056
:108640001B6F02002DE9F05F6E4C05460026607836
:10865000B34618B184F801B001F0E0FE6A4F4FF460
:108660007A694FF4C87A4FF00108182D69D2DFE813
:1086700005F00C1313384754696E727B727BC58406
:1086800084848484B3B6B9BCC5C501F0C7FE38681C
:10869000FEF792FD06465CE00020FFF787FE00280B
:1086A0004FF0000008D0FFF771FE022D02D14FF409
:1086B000E16008E0484606E0FFF770FE022D01D1B8
:1086C000C82000E05046410CC0034FF4FA728018F5
:1086D00041F10001257052000023FDF783FE0146A1
:1086E0002AE00020FFF762FE00284FF0000004D0CF
:1086F000FFF74CFE4FF44870E5E7FFF74FFEDFE76A
:108700000020FFF753FE00284FF0000002D0FFF7D3
:108710003DFECFE7FFF742FED4E70020FFF746FE1D
:1087200000284FF0000002D0FFF730FE01E0FFF715
:1087300035FE257041F69A1100223868FEF7F8FCE4
:10874000064646E00020FFF70FFE257008E00020F7
:1087500051E025703DE084F801800120FFF704FE20
:10876000002240F6CD41E8E784F801800120FFF7C0
:10877000FBFD00224FF48041DFE77868FEF71CFD27
:108780000646D5F1110000D02EB10220FFF7FEFD04
:1087900084F802B01DE0012816D980B2C8214843F0
:1087A000C117C90341EA5041C0034FF4FA7280185F
:1087B00041F1000152000023FDF714FE01460022A2
:1087C0007868FEF7B5FC06460220FFF7E7FD84F85F
:1087D00002803046BDE8F09F01F020FEB9E701F0CD
:1087E0001DFEB4E701F01AFE04E001F017FE0020C0
:1087F000FFF7D4FD0120FFF7D1FDAAE7FFF7EFFD5A
:10880000A7E700002C22002008090300012107F03F
:10881000F6BD00002DE9F8430546861C00208DF8C2
:10882000000090460F464FF001096846FEF750FDE4
:108830001B4C20683860D4E90001401AA16804F29A
:108840001C47081A0EE00121384602F020FB02F016
:108850000BF80146384602F01AFBD4E90001401A31
:10886000A168081A401C8642EDD8B8F1000F03D069
:10887000052065F3891002E0062065F39F50A26889
:108880002168114004EB8101C860206830442060F9
:108890009DF80000FEF740FD4846BDE8F883000063
:1088A0005C32002030B482680468531C8360A15499
:1088B000D0E901128A4202D330BC02F04EBD30BC76
:1088C00070470000034803C8814201D1012070476E
:1088D000002070475C32002000780221FFF7C6BDFF
:1088E00038B5104A044603204FF0A041C2F80007F3
:1088F0001020C1F80C050C490320FFF759FE08B100
:10890000FEF7A4FB69460020FFF784FD08B1FEF7DF
:108910009DFB9DF80000022802D00020207038BD89
:108920000120FBE710000050098502001CB5044639
:1089300001F0D4FB00236A46092104F0F9FF052861
:1089400005D10348012241792046FFF7C5FA1CBD35
:108950004C2200201CB50021009142F6A621ADF862
:10896000001001218DF80210034901AA0968019144
:108970006946A0DF1CBD00003409030005494FF023
:10898000FF32082841F8202002D3084480F848200C
:1089900070470000142D0020F0B54FF0FF3512B1E4
:1089A0000023082601E008230C260C4C05E000BF3C
:1089B00054F823707F1C04D05B1CB342F8D32846C4
:1089C000F0BD26185DB286F8305044F82310002A16
:1089D000F5D1E11881F84800F1E70000142D0020DE
:1089E0000249084490F9300070470000142D00201F
:1089F00070B504464FF6FF750A462846AC4209D1C9
:108A00004FF480742146104602F0FEF980B2A04275
:108A10000BD070BDFF2CFCD82146104602F0E4F9C3
:108A200090F0010F01D0204670BD284670BD0000B7
:108A300070B5084C050009D010342168002907D012
:108A400008682060496828468847F6E70834F4E754
:108A500070BD0000002D0020054A012120B1012831
:108A600005D19170FFF7E4BF51700020FAE770471D
:108A7000002D00202DE9F05F26484168F1B3DFF8B2
:108A800098B00E688146DBF8004087688078E11B6B
:108A900021F07F45ED1CB0B9DFF880804FF48030C5
:108AA000C8F84403C8F804031120FDF721FE112083
:108AB000FDF729FE4FF0010AC8F800A02F2003F0AF
:108AC00089FE89F802A0B54200D23546124BE8195A
:108AD0003C3320F07F401860DBF800105A46091B39
:108AE00021F07F41001B20F07F40C91C81420FD93B
:108AF000106818602F2003F06DFE00E004E0BDE870
:108B0000F05F1120FDF70ABEBDE8F05F06F012BA73
:108B1000BDE8F09F482300200415014000100140EB
:108B200073B58CB00646002000900D9880B10024EB
:108B30006D4621460DA802F08CF930B1009805EB86
:108B4000400084800098401C0090641C142CF0D3DA
:108B50002C2269463046FDF789FC0EB070BD2DE928
:108B6000F04117880646B81D14460D46984202D9B2
:108B70000C20BDE8F0813188072206290AD34FF482
:108B8000486C4FF6FF73614501D9994202D1708854
:108B9000062801D21046ECE7604501D99842F9D188
:108BA000994203D0984201D08142F3D80520E8557C
:108BB00020881221401C80B2208029542088401C2B
:108BC00080B220804119308807F0BAFA2188084421
:108BD00080B220804119708807F0B2FA21880844D9
:108BE00020800020C5E7FEF731BA000038B54A7A88
:108BF0000F4B62B100220A725969002906D0012286
:108C00008DF80020ADF802006846884738BD0A7A22
:108C100062B19B684C68024619462046FEF788FA06
:108C20000028F3D0BDE8384006F09CBB5B68F1E754
:108C300088290020F0B587B016460F4604461D4629
:108C400018220B496846FDF711FC0A488DF8087098
:108C5000ADF80240ADF80A608DF80C5001780022A2
:108C60002046FFF739F9684600F0D6FA07B0F0BDA4
:108C70009C0A0300E8220020FEF720B82DE9F04707
:108C800090B00E4605461C216846FDF708FC0024FE
:108C90009DF80000019420F0180040F002008DF8CB
:108CA000000003940494059406940C94B0798DF814
:108CB0003000F0798DF831009DF83200142120F059
:108CC0000600801C20F019008DF83200287E8DF8F7
:108CD000360042F20250ADF8340007A8FDF7DFFB82
:108CE0000DF134080DF13009CDE907894FF0010A83
:108CF000ADF824A04FF4FF77ADF82640ADF828700A
:108D0000A888AB1D07AA6946AADF002839D11C2113
:108D10006846FDF7C4FB9DF80000019420F01200A6
:108D200040F008008DF80000039404940594069424
:108D30000C94B0798DF83000F0798DF831009DF801
:108D40003200142120F00600801C20F019008DF85C
:108D50003200287E8DF8360042F20350ADF8340020
:108D600007A8FDF79CFBCDE90789ADF824A0ADF875
:108D70002640ADF82870A88805F10E0307AA6946B9
:108D8000AADF10B0BDE8F08770B588B006460020B5
:108D900005900690ADF81410ADF8161001900290F1
:108DA00001AA05A9304690DF050021D003F0B6FCEA
:108DB0000346114811493246401AC108012000EB10
:108DC000014004460E4903F0A0F8BDF8042012B992
:108DD000BDF8060028B1BDF80630204609A103F011
:108DE00094F8BDF808201AB12046164903F086F819
:108DF00008B0284670BD00004C2303003423030054
:108E00007811030054686520726571756573746527
:108E1000642054582F5258207061636B6574206C25
:108E2000656E67746820697320746F6F206C6F6E55
:108E3000672062792025752F2575206F637465740E
:108E4000732E0000C411030070B5044609480121C7
:108E500002F038F8BFF35F8F0025002808D12046C4
:108E600001F07CFC002803D1BFF35F8F014805604F
:108E700070BD0000582200207FB50C4610B10120C3
:108E800004B070BD2079002638B141F61D55012887
:108E90001BD0022826D00F20F2E702202071029674
:108EA0000396E0680190694601A805F09FFF50B164
:108EB00002988188E18000882081BDF80010029826
:108EC00006F012F8DCE70A20DAE70A4B6A460021CE
:108ED000A01D05F047FF38B1064918398E61CE61F3
:108EE0000A28CDD12846CBE702488188019805F0B1
:108EF000FBFFF5E7742300202DE9F0470025DFF89C
:108F00008C803CE06068002100EBC50601203278CF
:108F10009146FDF798FAD4E9062300EA020701EA30
:108F2000030C57EA0C0728D082438B434846C4E918
:108F3000062303F011FD327882469146012000217C
:108F4000FDF781FAD4E9042300EA020401EA0307E9
:108F50004A4650460021FDF776FA44404F403C43D4
:108F60000BD17078012801D0012100E00021726846
:108F700081EA0A010AB1484690476D1CEDB298F8A3
:108F8000000044468542BDD3BDE8F0872823002079
:108F900010B50021024801F095FF80F3100010BDCC
:108FA000783600200E4910B50A784C780023A2428A
:108FB00012D0521CD2B20A70022A00D10B70084A99
:108FC0000B780C3252F8232002608868104420F09D
:108FD0007F408860012010BD0360002010BD0000AC
:108FE0004823002013460A460021FFF723BE000055
:108FF0002DE9F843104D0F4680461E4691466946BE
:10900000286801F0BAFE040014D01C21FDF747FACD
:1090100001202071C4F81490380BC4F80080C4E912
:1090200002606946286801F0C9FE05F007FE0020CD
:10903000BDE8F8830420FBE7900B030010B503782C
:109040000022072B06D2DFE803F0050406102029D2
:1090500030000A7010BD01230B7003898B81838857
:10906000CB81C06888600A7410BD02220A70028930
:109070008A818288CA81C2688A60807D062802D07F
:109080000020087410BD0120FBE703220A70C2888B
:109090008A810289CA81C068886010BD04230B7070
:1090A000C0888881CA818A6010BD0520087010BD03
:1090B00070B5064D0646002455F8241009B1304617
:1090C0008847641C042CF7D370BD0000142F0020C7
:1090D00030B50446006887B00D46806800281FD070
:1090E00018216846FDF7DBF90195A0680590207905
:1090F00010B1012810D107E001208DF8000020698F
:109100000290E068039005E002208DF80000E0681E
:10911000000302906069049020688168684688476F
:1091200007B030BD2DE9F04186B016460C008046F0
:1091300029D0112C27D0082C25D018216846FDF7FE
:10914000AEF9ADF80280404600F0C8FFADF804006B
:109150001B481C490027401AC5080D2C16D0204674
:1091600003F0DCFA0246012000EB054043461649B5
:1091700002F0CBFE07208DF8000002948DF80C70F1
:10918000684600F057F806B0BDE8F081022000EB19
:10919000054042460D4902F0B1FE03208DF8000063
:1091A00026B13078C00701D0012000E002208DF800
:1091B000080041F201108DF80C70ADF80A00DFE7ED
:1091C0007C23030034230300341B0300241A030010
:1091D00010B50446408800F081FFA0800248016875
:1091E0002046BDE810400847542200202DE9F041F8
:1091F00007460024064E074D05E000BF56F8241030
:1092000038468847641CE8788442F7DBBDE8F08183
:10921000B42C00207822002010B50446408800F0CD
:109220005DFFA080024801682046BDE81040084765
:10923000500A03000149096808470000DC0A0300DE
:1092400070B586B0044618216846FDF728F9A08954
:109250000125A0F54040ADF804002078324E0628E4
:1092600035D2DFE800F0340303032E4EA08900F06E
:109270009EF930B9E08943F6FE71A0F5404088427E
:1092800025D8A07B8DF808002078032811D0002075
:109290008DF80900A0680390606860B109208DF81E
:1092A0000000606804908DF81450684604F092FA4B
:1092B0000DE00120ECE708208DF800008DF810503B
:1092C000F3E7A08900F073F908B1E08930B1707854
:1092D000002801D004F0C8FB06B070BD606840B142
:1092E0000B208DF80000606802908DF80C507570AE
:1092F000DBE70A208DF80000BDF8040004F052FC02
:10930000F5E7606858B114208DF80000606802909D
:109310008DF80C504FF6FF70ADF80400C5E7132030
:109320008DF80000F6E700006422002038B50446FE
:109330000E480078A8B1A4F57F40FF380FD06846EA
:1093400005F0AEFB78B10521017001210171C480E7
:10935000684605F0B3FB05F063FC002038BD04202F
:1093600038BD022038BD082038BD00007C23002015
:109370000C4808B5007888B1684605F091FB78B1D3
:1093800006210170684605F099FB0748017809B18C
:109390000121017305F044FC002008BD022008BD36
:1093A000082008BD7C230020D82F0020F0B587B00E
:1093B00014216846FDF773F82B4C207818B16846E5
:1093C000FFF776FE4EE0201D01F05EFDB8BB4FF0CA
:1093D000102041690004026940694B1C01D100FB67
:1093E00002F1224800220161A1F54051C1602049EB
:1093F00002F048F9002820D11F481C238C221D4967
:10940000006801F0A7FC03F077FF051E14D00228C6
:1094100012D000270126062D12D005A805F040FB2A
:1094200088B106700C2D18D2DFE805F0170F170F62
:1094300017161716171113110B2007B0F0BD11E006
:1094400026706760BBE70820F7E7077105E0032196
:1094500000E00221017100E0067105A805F02EFB75
:1094600005F0DEFB0020E8E77C2300201C24002020
:10947000A00B0300242F0020080B030038B50400C4
:1094800014D0694605F0B2FCA0B1BDF8000000EBB5
:109490008001094800EB8100C16849B1A17A39B166
:1094A000C168491EC1600020A07238BD052038BDCA
:1094B000062038BD0A2038BDB02F00201FB501A9F5
:1094C000684605F04FFC04B010BD07B513460A46C8
:1094D0006946002005F046FC0EBD07B513460A4656
:1094E0000021684605F03EFC0EBD20B119B10068B0
:1094F000086000207047052070470000F8B50D4651
:10950000040018D0BDB1694605F070FCA8B1BDF8E3
:1095100000000B4900EB800001EB800001210C30C2
:10952000666801F0B4FC2E6060680C306860012051
:10953000A0720020F8BD0520F8BD0A20F8BD00008B
:10954000B02F002018B10323002207F09BB805209C
:1095500070470223002207F095B80000084910B5B3
:109560000A69042A0AD0074A096942F82100044816
:109570000121103001F08BFC002010BD0C2010BD2B
:109580005C230020142F0020826883881A4003681F
:109590009A5C0A708168491C81607047C268838840
:1095A0001A4003689954C168491CC160704743F66A
:1095B000FE71A0F54040884201D80120704700208C
:1095C000704710B504460078182802D1FEF760FCF9
:1095D000207010BD10B504460078182802D1FEF79F
:1095E00057FC207010BD70B50D460446B0F8381217
:1095F000D0F834020122FEF70EF900B1057004F133
:109600003C0204F50D7104F1540072DF70BD0000DE
:1096100070B5134600220546112900D10122074CDE
:1096200033B12179FEF758FC00226178284600E02A
:109630006178BDE87040FEF74FBC0000F0220020CA
:10964000F7B517460E0011D00098002560B1002430
:109650002146684601F0FDFB18B1A0B23946B0477B
:109660006D1C641C142CF3D32846FEBD0020FEBDE7
:10967000406805F035BA000070B508B1012070BD32
:109680001B4C0025207B08B1257301E000F0A4F8F5
:10969000207808282AD2DFE800F02904080C1029D5
:1096A0001422BDE8704000F025B8BDE8704000F01D
:1096B00081B8BDE8704000F063B8BDE8704000F0CC
:1096C0003FB8062020706088094900EB80002839E7
:1096D00001EB80004068BDE8704003F0EDBD07205D
:1096E00020706560BDE8704003F0F4BD0F2070BDD0
:1096F000D82F00201149F0B48A1C00200346A1F1A4
:1097000028050C18A67A4EB1A37200EB800405EB75
:109710008404E66816B9247C012C0AD0401C80B26F
:109720000228EED30B704B804B60F0BC41F61D500D
:1097300070471080F0BC00F03DB80000D82F00202A
:109740000C48418801EB8102A0F1280101EB820164
:10975000CA6852B105210170074802218180016861
:1097600000230122054801F0F1BE0422027049687D
:10977000F6E70000D82F0020842300201C240020BE
:1097800038B50A49084803240B684268898803EB06
:10979000810153880470DB1C00201B0400909B0B8C
:1097A000034802F027F838BDD82F0020842300207A
:1097B0001C240020074910B54888091D05F066FBE8
:1097C00018B1BDE81040FFF7DBBFBDE81040FFF760
:1097D000B7BF0000D82F0020F0B51F481F49012552
:1097E000067802248B88A0F12802082E19D2DFE81F
:1097F00006F00418181B222F2F170189491C01811C
:109800000021418080F80C1001EB810312F8233015
:1098100043B100234418491C89B2A3720229F3D32F
:109820000570F0BD0123F5E742685288D21C1A4446
:109830008A800470F0BD46880D6806EB860602EB50
:10984000860256680E60556013818C80062100E008
:1098500007210170F0BD0000D82F002084230020D4
:109860002DE9F041044680882188394E86B00746AC
:10987000352937D0502923D0522902D054295DD11F
:1098800002E000F00FFF59E0182232496846FCF769
:10989000EDFDADF80270384600F020FCADF8040094
:1098A00000F09CF9002231793846FEF715FB0022C2
:1098B000F1783846FEF710FB6846FFF789FC3DE07B
:1098C000207B01283AD1A07A012837D12089A0F540
:1098D0002451023932D10121384600F037FF06F019
:1098E0009FFC2BE04FF0000842467179FEF7F4FA36
:1098F000E288B2F5857F1DD017481849401AC00884
:10990000022101EB004512B1284615A10BE0628946
:10991000012A03D0284621A102F0F0FAA289012AE7
:1099200004D028462CA102F0E9FA03E0A07B00B1A4
:10993000012080464146384606F034F90022354978
:10994000B078FEF75BFA06B0BDE8F04105F072BDF5
:109950004C22002090090300342303003423030029
:10996000556E657870656374656420474154542072
:10997000737461747573207768696C6520676574AA
:1099800074696E672043415220636861722076617A
:109990006C75653A20307825780000004D756C7440
:1099A00069706C6520282564292043415220636832
:1099B0006172616374657269737469637320666F41
:1099C000756E642C207573696E67207468652066F7
:1099D000697273742E000000556E6578706563744B
:1099E00065642043415220636861726163746572EB
:1099F00069737469632076616C7565206C656E6748
:109A0000746820282564292C2073746F72652030B7
:109A10002E0000005D74020070B504460078002836
:109A200014D1608800F03EFE6588284600F098F961
:109A300028B107480122C1782846FEF74DFA608810
:109A4000FEF774FFBDE8704006F0EABB70BD000091
:109A50004C22002070B51A4C00252570FEF718FA2C
:109A60006070FEF715FAA070FEF712FAE070FEF7CC
:109A70000FFA2071FEF70CFA607162780121182A42
:109A800012D0A278182A0FD0E278182A0CD02279A6
:109A9000182A09D0182807D004F10C000560BFF37C
:109AA0005F8F2170002070BD0648074A801AC008E9
:109AB00001EB0040054902F01DFA032070BD0000D3
:109AC0004C2200203423030034230300900E0300B3
:109AD0007CB504460078082837D1607A58BB207AD4
:109AE0001C4E4FF6FF75012811D0072802D0082818
:109AF0002BD121E0A08800F03BFA0446A84224D0F4
:109B0000012100F023FE2046FEF710FF1DE0A08893
:109B10006A46012103F080FD68B90198007850B1D0
:109B2000A08800F025FAA8420FD00122F178FEF7B4
:109B3000D3F905F07FFC08E0F068012805D1BFF3F8
:109B40005F8F044900200C310860BDE87C4006F0BE
:109B500067BB00004C2200202DE9F0418046024600
:109B600001200021FCF76FFC1A4F05460E4678686D
:109B7000FDF722FB00280CD1174CD4E90621104632
:109B80002A4001EA06031A4305D0A843B143C4E9B9
:109B90000601BDE8F081404602F0DEFE30B1D4E9B6
:109BA000040128433143C4E9040105E0D4E9041069
:109BB000A943B043C4E90410D4E906012843314362
:109BC000C4E90601A1687868BDE8F0410022FDF70C
:109BD000AFBA0000EC0A0300282300201CB5054A98
:109BE000D2E90212CDE900120022694603F0DAFE42
:109BF0001CBD0000AC09030003484FF6FF718180D3
:109C000001210170002070475C2200202DE9FC41F9
:109C1000804600F063FA002403250127A0F57F4168
:109C20002646FF3908D06A46082103F0F5FC18B92A
:109C30000198841D8688056832462B462146404699
:109C4000B1DF042804D0082804D00B2808D002E093
:109C5000112000E00020002F00D10B20BDE8FC8186
:109C60000027A80701D50125E6E7344303D00024E7
:109C700026460325E0E7064806494246401AC00842
:109C8000012101EB0040044902F038F9E5E700004A
:109C90003C23030034230300001103002DE9FC41A1
:109CA000804600F01BFAA0F57F410646FF390ED032
:109CB00001252A466D1C0027ADB26B4608213046AF
:109CC00003F0F4FC040006D0072C33D033E043F259
:109CD0000200BDE8FC81019903230A1D0B60404688
:109CE000891DB2DF040004D00C2C09D0052C09D04A
:109CF00009E032460821104603F050FD04461AE000
:109D0000012700E000240821304603F03DFD70B13A
:109D100002F004FD0346094809493246401AC008CA
:109D2000012101EB0040074902F0EFF80324002F66
:109D3000BFD100E00C242046CBE700003C23030009
:109D4000342303008010030004488088A0F57F417D
:109D5000FF3901D005F078BB704700005C2200207D
:109D60000EB502A9019100F0B9F96A46012103F08C
:109D700053FC08B100200EBD019800780EBD000014
:109D80002DE9F04107464FF6FF761048B3DF78B172
:109D900002F0C4FC02460E480E49401AC0080121D8
:109DA00001EB00400C4902F0A9F80320BDE8F08166
:109DB000064C43F20305A41E324661883846AFDFE5
:109DC000A842F3D16088401C6080F5E75E22002045
:109DD0003C2303003423030034100300428800EBCB
:109DE00082020C328A4201D9022070478188A1F593
:109DF0007F42FF3A03D0008808B10020704701205D
:109E00007047884204D20068401C01D0012070478E
:109E1000002070473EB5027802230C46B3EB520F88
:109E200017D1B0F80110ADF80010C1788DF802100C
:109E30008188ADF8041080798DF8060002AA01A986
:109E40002046FDF741F8032202A96846FCF739FBDA
:109E500008B100203EBD01203EBD000070B50D469A
:109E60000446142810D2FEF757F868B1084904EBED
:109E7000840001EB4000D0F802102960C188A9805D
:109E8000007AA871002070BD43F2020070BD00008E
:109E90001C2A002070B5018892B0102961D1011DE3
:109EA0002C226846FCF7E2FA9DF804004FF6FF7694
:109EB00003213446B1EB500F2BD003F031FD9DF858
:109EC00004006D4640080ED001280CD0022820D195
:109ED00018E00D99281D1131FCF78EFF18B100BF55
:109EE000BDF82C4015E00CAA0BA9072003F0ECFCF0
:109EF0000028EED10DE00D99281D491CFFF78AFFBF
:109F00000028EDD10CAA0BA9072003F0DDFC0028E6
:109F1000F1D1BDF80000B44200EB8001124820F8F6
:109F2000114000EB41000199C0F80210BDF8081083
:109F3000C1809DF80A10017213D0BDF80000ADF881
:109F40002E000020ADF83040084E8DF82C000BADEF
:109F5000044600BF56F8241028468847641C022C8B
:109F6000F8D312B070BD00001C2A0020C009030005
:109F70002DE9F0414FF6FF760546B04213D00B4F66
:109F8000002400BF04EB840037F81000A84206D17B
:109F90002046FDF7C1FF10B12046BDE8F081641CEA
:109FA000A4B2142CEED33046F7E700001C2A0020A0
:109FB0003EB50C46054603F0B3FC0BE0BDF80000CF
:109FC000A04207D02846029900F00EF810B1BDF863
:109FD00000003EBD01AA6946072003F075FC002879
:109FE000ECD14FF6FF703EBD2DE9F0410C46054621
:109FF00000F1110701F111061022491C401CFCF769
:10A0000060FA48B9681C00F0F9F928B1601C00F04A
:10A01000F5F908B1012400E0002431463846FCF788
:10A02000EBFE3B780222B2EB530F0CD00321B1EBD5
:10A03000530F08D03378B2EB530F04D0B1EB530F6A
:10A0400001D0012100E00021084201D18C4302D05F
:10A050000120BDE8F0810020FBE7018811B942181A
:10A0600092780AB101207047491C0829F7D30020D3
:10A07000704710B50C460346FFF7EFFF00280AD0E3
:10A0800018882188884205D10822A11C981CFCF759
:10A0900018FA08B1002010BD012010BD142804D208
:10A0A000024A00EB800022F8101070471C2A0020A2
:10A0B00070B50546FFF75CFF0446284603F0B0FA8A
:10A0C000002808D1142C06D2034B04EB84024FF66F
:10A0D000FF7123F8121070BD1C2A002010B5044631
:10A0E000142808D2FDF718FF28B1044904EB8400B6
:10A0F00031F8100010BD4FF6FF7010BD1C2A002073
:10A100003EB5044603F00CFC0EE0019920464631B2
:10A11000FFF7AFFF28B9019920462A31FFF7A9FFC1
:10A1200010B1BDF808003EBD6A4602A9072003F041
:10A13000CBFB0028E9D14FF6FF703EBD10B50A49B0
:10A1400041600A4800F0A0FE58B902F071FA0749D0
:10A150001C238C22087404488C39001F006800F00E
:10A16000F9FD002010BD0000940B03008430002096
:10A170002DE9F0412D4F002518B17D600120BDE88B
:10A18000F0810879012258B1294E01280CD0274CC2
:10A190004FF002080834022821D0032842D128E0D9
:10A1A0000A7103F097F83BE05FF0000000EB8001DC
:10A1B00016F82110022908D0401C80B20228F5D3DD
:10A1C0003A707D6041F61D50D9E700EB800006F83B
:10A1D000205006EB8000406803F06EF820E00D711F
:10A1E000A4F80480002301221248216801F0AEF98E
:10A1F00016E00D71206803F05FF80D4923682831DF
:10A20000498801EB810206EB8201D1F804C0C4F851
:10A2100000C04B60A3880B81A4F8048006F822508C
:10A220000028ACD07D600E20A9E700007C23002030
:10A23000B02F00201C2400200146034802888A42D7
:10A2400000D0002070470000742900202DE9FC5F39
:10A250000E008346DDE90C47C6F1000098469246A1
:10A26000814600D40846012503E000BF90FBFAF0C8
:10A270006D1C5045FADAA84500D9454624B1002E98
:10A2800001DB780700D5641EB80702D5B8F1000FCE
:10A290000AD0F80708D13CB1A54205D22021584682
:10A2A000641EFEF7FFFAF6E7002E02DA4E462D2175
:10A2B00002E0780703D52B215846FEF7F3FA07F0A2
:10A2C000030002280BD1B8F1000F08D13CB1A54220
:10A2D00005D230215846641EFEF7E4FAF6E7CDE9D0
:10A2E0000047434652463146584605F03FFFBDE819
:10A2F000FC9F000070B50D46044600684FF488715D
:10A3000002F02CFA4FF49071206802F027FA4FF413
:10A310009271206802F022FA4FF4A271206802F0D4
:10A320001DFA20681249C0F804132068690740F339
:10A330000730090E002806DA00F00F0000F1E020D7
:10A3400080F8141D03E000F1E02080F8001420687C
:10A35000012140F3073000F01F02914040098000C6
:10A3600000F1E020C0F88012C0F8001170BD0000BC
:10A3700010030200024600201268530713D502F0B2
:10A380000300012802D002280CD105E0C2F383109B
:10A390000B68801C184404E00223086803EB925207
:10A3A00010440860012070470248007A002800D05D
:10A3B0000120704784300020F0B58488A5189442AD
:10A3C00000D82246A41AC288D6189A4200D813464A
:10A3D000D21A4B880788BB420CD34088834209D8E5
:10A3E0008888A04206D3A84204D8C888904201D3E6
:10A3F000B04201D90020F0BD0120F0BD0021425C37
:10A400000AB101207047491C1029F8D30020704779
:10A41000800701D000207047012070470A4810B51E
:10A42000807860B1002401E0022C06D02046FDF7C0
:10A43000ADFF641C042CF7D310BD0324F6E7BDE880
:10A440001040FDF7C3BF00002C2200200348017913
:10A45000C90702D00078FEF7F5B870472C2200201B
:10A460001721018041800021017141711B218171FF
:10A47000C17170472DE9FE4F2E4F984692460D0050
:10A48000814601D000260DE0684600F01FFC6A46B8
:10A490000021484603F018F83878009E10B99DF85E
:10A4A000090098B152463146484605F055FA04462F
:10A4B000014600224846FFF7ABF80D2C37D008DCE8
:10A4C000A4B3082C33D00B2C09D130E00520BDE813
:10A4D000FE8F112C1ED0A4F54050023827D0204604
:10A4E00002F01CF90246144814494B46401AC008B1
:10A4F000012101EB0040124901F007FD5FF0030567
:10A50000B8F1000F04D0324621464846FEF70AFE55
:10A510002846DCE72A46F9784846FDF7DDFC524636
:10A52000B9784846FDF7D8FC0025E9E7FFE725465E
:10A53000E6E70000F02200207C2303003423030020
:10A54000DC1A030070B50E460C491546044609781E
:10A55000FDF7AAFC00280FD0204602F05BFF002880
:10A560002A463146204603D0BDE8704002F058BF6D
:10A57000BDE87040FEF736BD70BD0000E822002047
:10A5800070B5094D0646A978FDF78EFC0446E978BA
:10A590003046FDF789FC014622463046BDE8704052
:10A5A0000123FFF767BF0000F02200202DE9F047EC
:10A5B000394E002780463D46DFF8E090D6F804A0EB
:10A5C00057E003D00446D0F81C8035E099F800200D
:10A5D00002EB4201521CD2B289F8002009EBC10102
:10A5E00099F80230091D9A4201D189F80050486853
:10A5F0000A780446012A12D0022A02D0032A3BD14B
:10A6000008E005F059FB00B10127257434E005741A
:10A61000C06900E070680028F9D170602CE0207CEF
:10A6200050BB88686060C868A0600869E0604869DD
:10A63000A061F07800B165606268B168184B501A8B
:10A6400020F07F40984202D2A168084406E0881AB0
:10A65000A16820F07F40814202D9081A206000E002
:10A66000256065600120A56020742046E56105F045
:10A6700005FBB8F10000A4D199F8001099F8010089
:10A680008142A3D117B97168514502D00120BDE8BC
:10A69000F0870020FBE7000048230020E02D002089
:10A6A000FFFF7F00F0B587B00546002718216846F8
:10A6B000FBF7F5FEA5F57F40ADF80250FF3825D039
:10A6C0002846FFF7A3FA040022D01B481B49401A72
:10A6D000C6080B2C22D0112C1ED0A4F540500238F5
:10A6E0000ED0204602F01AF80246012000EB064088
:10A6F0002B46134901F009FC2146284604F04AFE86
:10A7000010483A4681782846FDF7E6FB07B0F0BDD1
:10A710000E208DF800000BE00127F1E70F208DF8E7
:10A720000000022000EB06402A46074901F0E6FB44
:10A730006846FEF74DFDE3E73423030034230300AE
:10A74000600F03004C220020B40F03000A460249A8
:10A750004978FDF7C1BB00004C2200202DE9F041F3
:10A76000002786B080463E46FFF798FA040022D0C4
:10A77000112C22D01B481C49401AC508862C1ED01B
:10A78000A4F5405002380ED0204601F0C7FF024623
:10A79000012000EB0540434614A101F0B6FB214621
:10A7A000404604F0F7FD39464046FFF7CFFF06B0BC
:10A7B0003046BDE8F0810126F5E70127F3E71822CE
:10A7C0001A496846FBF752FE0220ADF8028000EB02
:10A7D0000540424616A101F091FB6846FEF7F8FCE1
:10A7E000E1E7000034230300342303006773636D43
:10A7F0005F6C6F63616C5F64625F63616368655F18
:10A8000075706461746528292072657475726E654F
:10A810006420257320666F7220636F6E6E5F6861BF
:10A820006E646C653A202564000000006009030036
:10A83000466C6173682066756C6C2E20436F756C76
:10A8400064206E6F742073746F726520646174612C
:10A8500020666F7220636F6E6E5F68616E646C65F8
:10A860003A202564000000002DE9FF41002623481E
:10A8700000F007FB2148001F074600F002FB204CB8
:10A8800060680090A56800E000986946284004EBE5
:10A8900080000C30FFF76EFD0028F5D101AA009969
:10A8A00001EA050304EB8303491CDB6842F820300E
:10A8B000401C00910228F2D3019800F00300012807
:10A8C0000BD0022810D10198032101EB9050009980
:10A8D000BDF80A6001EB900005E00198BDF80A6040
:10A8E000C0F3831008440090384600F0C7FA08B15E
:10A8F0000098606004B03046BDE8F08174360020F6
:10A900005C320020ACB018226A4904A8FBF7AEFD07
:10A910006948009069494FF48070CDE901010390C6
:10A920000723674A694604A8FCF756FC08B1FCF700
:10A930008DFB4FF40041002001F058FB08B1FCF7FB
:10A9400085FB01F0AFF9FCF7C9FB08B1FCF77EFB12
:10A9500058485C4A0121001FFCF7ACFB08B1FCF72A
:10A9600075FB2BA8FDF7BCFF01F056FC08B1FCF706
:10A970006DFB01F011FE08B1FCF768FB002469468D
:10A980000120009401F098FC08B1FCF75FFB6846D9
:10A9900001F012FD08B1FCF759FB9DF808004AA12F
:10A9A00020F00F00401C20F0F00010308DF808005F
:10A9B000052202A87CDF08B1FCF748FB0094502078
:10A9C000ADF80000A0200194ADF80200ADF80440FD
:10A9D0004FF4C870ADF8060068467ADF08B1FCF79E
:10A9E00035FB00213A4800F0E2FA08B1FCF72EFBF3
:10A9F00004F00AFEAC216846FBF751FD012002215C
:10AA00008DF83C108DF83E008DF800108DF8020096
:10AA10000621ADF810008DF87C008DF803104FF47E
:10AA200096702C492290059144F2506023902A4858
:10AA30002990274869462030FCF71CFF08B1FCF735
:10AA400005FB234801212030FCF711FF1C2168463B
:10AA5000FBF725FD4FF42030CDE900404FF4702086
:10AA600002901E48059003251D488DF80C50069055
:10AA7000ADF80E408DF810406846FDF771F908B149
:10AA8000FCF7E4FA03F0D4F816481749401AC00856
:10AA900005EB004015A101F02DFA9DF8AC00FCF784
:10AAA000EBF900BF01F00CF90028FBD101F0C8FB65
:10AAB000F8E70000D80803005024002050250020AB
:10AAC0000FFE020011AD0200416C61726D000000CA
:10AAD0007026002024220020FDCE02009DCF02001F
:10AAE000E78B0200C42303003423030054656D7018
:10AAF0006C617465206578616D706C65207374613C
:10AB0000727465642E00000070B5144682880E468B
:10AB100005462088111D0144921C994201D8FE2A45
:10AB200001D90C2070BD521C32542088FF21401CDA
:10AB300080B2208031542088401C80B2208081194E
:10AB4000288805F0FDFA2188084480B22080AA8870
:10AB500042B1A96841B13044FBF788FC2088A9883C
:10AB600008442080002070BD072070BD2DE9F0470B
:10AB7000C5881E1DB6FBF5F78946B6FBF5F1044600
:10AB800005FB176C407916686843DDF820A0F718BC
:10AB9000001F874200D9C61A166001E02468491ECA
:10ABA0000029FBD1A5EB0C078846B74216D818E060
:10ABB00004EB0C00001D09EB0803BAF1000F3A4644
:10ABC00002D00146184600E01946FBF74FFC246806
:10ABD000F61B4FF0000CB844B54201D9374600E0EF
:10ABE0002F46002EE4D1BDE8F087000030B50246C4
:10ABF00051B101F019FA0021074C08E034F8213076
:10AC00001568AB4202D11160002030BD491C814261
:10AC1000F4D3052030BD000000000000BFF35F8FBB
:10AC200000F017B9F8B50F4601781446054601291A
:10AC300001D1687830B12088821C9A4232D801292B
:10AC400002D006E00720F8BD69780144891C9942CA
:10AC500028D8181A801E86B2ADF800602188B81C6A
:10AC6000084469467DDF0028EDD12978022904D007
:10AC70006878BDF80020904205D3BDF80000B042CE
:10AC800001D809200AE00820012905D16978B142DC
:10AC900002D8ADF8001001E0ADF80060BDF800107A
:10ACA000FE2901D90C20F8BD2288491CB9542188FD
:10ACB000491C89B2218078542088401C2080BDF82E
:10ACC0000010084420800020F8BD0000034A002145
:10ACD0009268C0E90021816070470000F0220020E6
:10ACE00070B54FF6FF750E46A84201D1002000E076
:10ACF000401C84B208E02146304600F0AAF808B1B2
:10AD0000204670BD641CA4B2FF2CF4D9284670BD47
:10AD10000A4810B50178102901D100210170C9B28B
:10AD2000491CC9B201700648FCF79BFF002803D0FC
:10AD3000BDE81040FCF78AB910BD000020220020B9
:10AD40005026002010B5FBF7B0FA08B1002010BD66
:10AD5000112010BD10B531B1B2FBF3F403FB142484
:10AD60001CB1092010BD0E2010BD01600021416002
:10AD700081608281C381084610BD70B50C460546CE
:10AD8000FBF748FA002802D021882868084470BDE3
:10AD900010B50A8849888A4203D1FBF77DFA012061
:10ADA00010BD002010BD70B50C460546FBF757FAE4
:10ADB000002802D061882868084470BD10B50A8850
:10ADC00049888A4203D1FBF741FA012010BD0020D7
:10ADD00010BD01F01F0301229A40D243490900EB44
:10ADE0008100114600F059B80A4601F01F03012105
:10ADF000994010B552090C4600EB820000F05DF856
:10AE0000204000D0012010BD2DE9F04180460D46C4
:10AE10000024481E012101EB501716E058F82400C9
:10AE2000C04390FAA0F0B0FA80F020280CD200EBDA
:10AE30004416AE4208D231464046FFF7D5FF0028FF
:10AE4000ECD13046BDE8F081641CA742E6D8284624
:10AE5000F8E74A0950F8220001F01F020121914051
:10AE6000084000D00120704701F01F0301229A40E2
:10AE7000490900EB8100114600F029B8002100F0DB
:10AE800017B8012100F023B8012100F016B808B569
:10AE90006A46FBF756FA009808BD08B56A46FBF704
:10AEA00036FA009808BD08B56A46FBF74AFA08BDAD
:10AEB00008B56A46FBF72BFA08BD08B56A46FBF7EA
:10AEC00019FA08BD08B56A46FBF708FA08BD08B5C7
:10AED0006A46FBF70FFA009808BD08B56A46FBF70B
:10AEE0003DFA009808BD38B5044600258DF800509D
:10AEF0006846FCF7EDF921686268086890420ED94F
:10AF0000401E08600178238AE26801FB0325227A4B
:10AF10002168101AC0B20A79824200D208719DF8E5
:10AF20000000FCF7F9F9284638BD38B50546002081
:10AF30008DF800000C466846FCF7CAF9E868298AD3
:10AF4000201AB0FBF1F12A681068431C13600170ED
:10AF50009DF80000FCF7E0F938BD10B530B1017A7A
:10AF600042680368891AC9B21A6006E00E2010BD53
:10AF700003681A68541C1C601170491EC9B2F7D2CC
:10AF8000006800210171084610BDC20800F00703E7
:10AF90000120895C98400840704710B5C20800F055
:10AFA0000703885C01249C402043885410BD10B5E1
:10AFB00060B10161172120F8021B20F8021B1B2140
:10AFC00000F8021BFFF74CFA002010BD0E2010BD48
:10AFD000F0B5858893B00C46002D39D10188002644
:10AFE0003F4F24293BD006DC102909D011290CD071
:10AFF000232958D14FE03A290BD0552953D129E0C4
:10B000000146204601F0D8FF4DE0A01DFFF728FAC9
:10B0100049E02246408934F8061F814200D808469C
:10B020006080172800D217206080106970B16079A5
:10B0300060B1D7E90001CDE90301ADF80E50608899
:10B04000ADF81000136903A9104698476671267180
:10B0500013B0F0BD0146204602F002F823E0011DC6
:10B060002C2206A8FBF702FABDF81800BDF81C2038
:10B0700004EBC0014A732269AAB1D7E90423CDE9E0
:10B080000423ADF81200487B8DF814002269204695
:10B0900004A9904707E0017A207B884200D201464C
:10B0A0002846FDF771FEA07A0028D1D0E188284615
:10B0B000A5DF012580B11128CAD001F02FFB02467F
:10B0C0000848094913B0401AC00805EB0040BDE824
:10B0D000F04006A100F012BFA672E572B8E70000CA
:10B0E000C80903004C2303003423030073645F6228
:10B0F0006C655F67617474635F65786368616E67D0
:10B10000655F6D74755F726571756573742829204C
:10B1100072657475726E65642025732E00000000E0
:10B1200020B10278DE2A03D0082070470E20704735
:10B1300041800020704760B159B10278DE2A0AD000
:10B1400009684160DE2101704FF6FF7141800020E7
:10B1500070470E207047082070477FB505460029CC
:10B160004DD0002D4BD008780C46DE2847D1A8885A
:10B170006188884202D1204605F0B0F8288801286D
:10B1800025D002283BD011283AD0512837D135F8A4
:10B19000040F6188884232D1A978A81C02292ED1D7
:10B1A000017A042903D0062901D0052927D10021DD
:10B1B000009102228DF8002001914FF4C07202919B
:10B1C0000391ADF80420007A05280FD010E0297A09
:10B1D0002046012913D1A988428891420FD101212B
:10B1E000017204B0BDE8704005F078B8ADF8041005
:10B1F00028886946B0DF002801D0616888477FBD94
:10B20000A88861888842FAD14FF6FF7060807FBDC0
:10B2100000F180400068002800D00120704708B588
:10B2200000F18040002101600068009008BD00002E
:10B2300070B50B4C207808B185250FE00020A06088
:10B2400060602061E060074801F0A6FA054601F061
:10B25000EFF908B901F088FA01202070284670BD86
:10B26000002D0020598A020038B500258DF80050C5
:10B270006846FCF72DF8074CE068401EE060E06887
:10B2800010B901F099FAA5709DF80000FCF744F898
:10B2900038BD0000002D0020F0B5054604781548A3
:10B2A00089B0164640F82420124A0869121DA2F1FE
:10B2B000080742F82400487F385520226846FBF7EB
:10B2C000D5F804942878385C48B10EB10A4A00E0F9
:10B2D00000226946281D01F003FD09B0F0BD0EB142
:10B2E000064A00E00022694605F10C0001F0AEFBC1
:10B2F000F3E700000C2300201D000300C5FE020040
:10B3000030B40378054CE35C1BB130BC001D01F088
:10B310001DBD30BC0C3001F003BC00000823002030
:10B3200030B40378054CE35C1BB130BC001D01F068
:10B330008FBD30BC0C3001F069BC00000823002038
:10B340000FB408B50399002904D004AA00926A46F4
:10B3500000F00FF801B05DF814FB10B582680446E8
:10B36000002A05D0D4E90403216898470020A06092
:10B3700010BD2DE9FC4791460C00804676D014F8AC
:10B38000011B39B125290ED04046FDF78BFA2078F4
:10B390000028F4D198F80C00002867D04046BDE89A
:10B3A000FC47FFF7DABF0020012221782B291BD0B0
:10B3B0002D2902D0302908D102E040F0010001E03F
:10B3C00040F00200641C002AEFD100252A290ED08B
:10B3D0002178A1F130020A2A11D205EB850201EB96
:10B3E0004205641C303DF1E740F00400EAE7D9F87B
:10B3F00000100B1DC9F800300968641C0D44217849
:10B4000000232E290BD114F8011FA1F130020A2AC2
:10B4100005D203EB830201EB4203303BF3E76C29D7
:10B420000DD068290BD0692921D00BDC252918D033
:10B43000582931D063290ED0642915D117E014F8AA
:10B44000011FECE7702969D0732932D075291BD010
:10B45000782909D120E0D9F80000011DC9F80010B1
:10B4600001784046FDF71EFA641C90E76CE0D9F8BD
:10B4700000100A1DC9F800200968CDE900500A2211
:10B480004046FEF7E3FEEFE7D9F800100A1DC9F8C1
:10B49000002009680A2206E0D9F800100A1DC9F840
:10B4A000002009681022CDE90050404604F05EFEFD
:10B4B000DAE7D9F8001000270A1DC9F800200E6845
:10B4C000C00705D112E04046761C7F1CFDF7EAF963
:10B4D00031780029F7D104E0202140466D1EFDF7A8
:10B4E000E1F9BD42C0D9002DF6D1BDE74EB13046DD
:10B4F000FAF7E0FF074604E0202140466D1EFDF705
:10B50000D1F9BD4206D9002DF6D103E04046761CA4
:10B51000FDF7C8F931780029F8D1A5E7D9F800007E
:10B52000011DC9F80010056830214046FDF7BAF941
:10B5300078214046FDF7B6F908200021CDE9000149
:10B54000034610222946B0E7BDE8FC872DE9F84301
:10B55000884605002C482D499946A0EB01004FEA8A
:10B56000D0004FF00101164601EB004424D02868BA
:10B5700000282CD0002E34D0696840464FF01007C8
:10B580000A68511E11EA080F11D10146724328467C
:10B59000FBF74BFC00282ED028684B463246046946
:10B5A00001B041462846A446BDE8F0436047204626
:10B5B000174B18A2009722E00E2000902046144B53
:10B5C0001EA220A100F0A9FC0E20BDE8F8830820EF
:10B5D000009020460E4B26A21AA100F09EFC0820E7
:10B5E000F3E7092000902046094B24A215A100F0A2
:10B5F00094FC0920E9E7064B214A2046009711A157
:10B6000000F08BFC1020E0E7B42303003423030098
:10B610007B0B0300616464725F69735F70616765CF
:10B620005F616C69676E656428705F66732C20705B
:10B630006167655F6164647229000000705F667312
:10B6400000000000257320636865636B20666169F4
:10B650006C656420696E20257328292077697468D9
:10B660002076616C756520307825782E000000000A
:10B67000705F66732D3E705F617069006C656E006F
:10B68000A01B030038B503001148124D4FF00E0403
:10B69000A0EB05004FEAD0004FF0010505EB00409C
:10B6A00009D061B119600C6801B0A446BDE8304012
:10B6B000114618466047084B08A2009402E0064B6A
:10B6C00008A2009409A100F028FC0E2038BD00005B
:10B6D000B423030034230300300B0300705F667350
:10B6E00000000000705F6170690000002573206336
:10B6F0006865636B206661696C656420696E2025EE
:10B7000073282920776974682076616C756520300C
:10B710007825782E00000000044801214174007A49
:10B7200008B10020704701207047000084300020DD
:10B73000012801D0032808D10449002201284A74B5
:10B7400000D00020087403F01BBA7047843000203A
:10B7500070B50246022801D0032A45D1234C207A35
:10B76000002841D0012833D0022831D120480023BD
:10B77000022A006802D0032A2AD11BE0E360017983
:10B7800011B1012924D10DE0D0E90565711B4FF4F9
:10B790008056B14200D33146294481614569A942AE
:10B7A0000ED015E00169491C0161426991420FD137
:10B7B000237213E0E168491CE160082908D9E360BD
:10B7C0002372022A0AD00D21FDF782FC03F07EF9D4
:10B7D000607C28B1BDE8704000F030BF0021F3E785
:10B7E000BDE8704003F0CCB970BD0000843000208B
:10B7F0008C2300202DE9F84F90468A463A493B4A6F
:10B800000500A1EB02014FEAD1014FF00102DDF882
:10B8100028901E464FF00E0002EB01441AD0B8F1FA
:10B82000000F1CD02868002822D00920002E29D023
:10B8300069684968B6FBF1F201FB1261002926D064
:10B8400000902B4B20462BA235A100F066FB09206F
:10B85000BDE8F88F00902046254B3CA203E0009005
:10B86000234B20463BA22EA100F057FB0E20EFE712
:10B870000820009020461E4B38A229A100F04DFB65
:10B880000820E5E700902046194B37A2DCE7504638
:10B89000FBF7C5FA102798B14046FBF7C0FAA0B1F4
:10B8A000324651462846FBF7C0FA98B1CDF80090D1
:10B8B000286833464246C46851462846A047C7E731
:10B8C00020460B4B29A2009708E02046084B2DA2EA
:10B8D000009703E0064B204633A2009710A100F02A
:10B8E0001CFB1020B4E70000B42303003423030042
:10B8F000680B030021286C656E202520705F66733D
:10B900002D3E705F666C6173685F696E666F2D3E79
:10B9100070726F6772616D5F756E697429000000E7
:10B92000257320636865636B206661696C656420BC
:10B93000696E202573282920776974682076616CE8
:10B94000756520307825782E00000000705F6673E2
:10B9500000000000705F737263000000705F667328
:10B960002D3E705F617069006C656E006164647289
:10B970005F69735F616C69676E6564333228646503
:10B9800073742900616464725F69735F616C6967D5
:10B990006E65643332282875696E7433325F74299A
:10B9A000705F737263290000616464725F69735F22
:10B9B00077697468696E5F626F756E647328705F13
:10B9C00066732C20646573742C206C656E290000EE
:10B9D00070B541EA4201DDE904564FF0A04441EA66
:10B9E000830141EA052104EB800041EA0641C0F8E9
:10B9F000001770BD70B541EA4201DDE904564FF011
:10BA0000A04441EA830141EA052104EB800041EAB8
:10BA10000641C0F8001770BD70B541EA4201DDE98A
:10BA200004564FF0A04441EA830141EA052104EBAA
:10BA3000800041EA0641C0F8001770BD70B541EAC8
:10BA40004201DDE904564FF0A04441EA830141EA96
:10BA5000052104EB800041EA0641C0F8001770BDE3
:10BA60001CB500220B46009211460192FFF7D4FF4D
:10BA70001CBD1CB500220B46009211460192FFF737
:10BA8000DDFF1CBD1CB5002100910B460122019178
:10BA90001146FFF7C1FF1CBD1CB5002100910B46EC
:10BAA000012201911146FFF7C9FF1CBD4FF0A042D2
:10BAB00002EB8000D0F8002722F44032C0F80027C3
:10BAC000D0F8002742EA0141C0F800177047012270
:10BAD0004FF0A043824011B1C3F808257047C3F866
